:020000040800F2
:100000008804002015160008491500084B15000843
:100010004D1500084F15000851150008000000009C
:100020000000000000000000000000005315000860
:100030005515000800000000571500085915000864
:100040004116000845160008491600084D1600081C
:100050005116000855160008591600085D160008CC
:100060006116000865160008691600086715000883
:100070006D1600087116000875160008791600083C
:100080007D160008811600088516000889160008EC
:100090008D1600089116000895160008991600089C
:1000A0009D160008A1160008A5160008A91600084C
:1000B000AD160008B1160008B5160008B9160008FC
:1000C000BD160008C1160008C5160008C9160008AC
:1000D000CD160008D1160008D5160008D91600085C
:1000E000DD160008E1160008E5160008E91600080C
:1000F000ED160008F1160008F5160008F9160008BC
:10010000FD16000801170008051700080917000868
:100110000D17000811170008151700081917000817
:100120001D170008211700082517000829170008C7
:100130002DE9F8430646DFF870543078C10748D5FA
:10014000686800F00C00042807D0686800F00C0014
:1001500008280BD16868C10308D52868810338D501
:100160007068002840F0BE80012067E17068B0F53B
:10017000803F04D1286840F48030286014E008B93A
:1001800028680AE0B0F5A02F286806D140F4802046
:100190002860296841F4803105E020F4803028602F
:1001A000296821F480212960706868B100F036FA6E
:1001B00004462868810300F1958000F02FFA001BA7
:1001C0006528F6D3032039E100F028FA04462868B0
:1001D000810340F1878000F021FA001B6528F6D3E7
:1001E000F0E700F01BFA001B022840F2AA80E9E7C2
:1001F000306970B10121396000F010FA04462868B6
:10020000810700F1DC8000F009FA001B0228F6D912
:10021000D8E7386000F002FA04462968880765D5F7
:1002200000F0FCF9001B0228F7D9CBE7086000F0CA
:10023000F5F90446686A810777D500F0EFF9001BED
:100240000228F7D9BEE708B9286A09E00528286A14
:1002500006D140F004002862286A40F0010005E061
:10026000400840002862286A20F00400286241F219
:100270008938F06868B100F0D1F98146286A8107B1
:1002800000F1AA8000F0CAF9A0EB09004045F5D3BF
:1002900098E700F0C3F98146286A810740F19C8005
:1002A00000F0BCF9A0EB09004045F5D38AE700F067
:1002B000B5F9001B022840F2A28083E700F0AEF9F6
:1002C000001B022840F2B5807CE700F0B9F8044634
:1002D0002868810140F1B18000F0A0F9001B0228DC
:1002E000F6D96FE73078DFF8CC7281071BD56868E4
:1002F00010F00C0F09D0686800F00C0008287FF49B
:1003000077AF6868C1033FF573AF2868810703D5ED
:10031000306901287FF428AF2968706921F0F8015D
:1003200041EAC0012960317808071DD5B069DFF8BE
:10033000881200283FF47AAF01220A6000F06EF9BB
:100340000446686A81077FF54CAFDFF860020268F7
:10035000D2084FF47A71B2FBF1F1009100BF00981E
:10036000411E00280091F9D13078410739D5E8695C
:100370000024C10009D4E86940F08050E8610124FC
:10038000E86900F0805000900098DFF83082D8F8DB
:100390000000C1051BD4D8F8000040F48070C8F8F4
:1003A000000000F03BF98146D8F80000C1050ED4EA
:1003B00000F034F9A0EB09006528F5D302E72868BE
:1003C000716920F0F80040EAC1002860ABE7F068EE
:1003D00001287FF438AF3FE71CB1E86920F0805076
:1003E000E861F06948B3696801F00C0108293FF43D
:1003F000BBAE02287FF469AF00F022F804462868FB
:1004000081013FF554AF306AB0F5803F05D169688E
:10041000B06821F40031014369606A68306A716A2A
:1004200022F4741202430A436A60012000F009F8C2
:100430000446286881017FF541AF0020BDE8F283C2
:100440000020386600F0EAB82DE9F8435C4F054615
:100450003868894600F00700484502D200F079F874
:100460006BD12878504C810705D56268A86822F0C6
:10047000F002024362602978C80756D568680128EF
:1004800002D121688A0303E00228216802D18A018F
:1004900002D452E08A0750D56168890840EA810099
:1004A000606041F2893800F0B9F8064668680128B2
:1004B0000BD1606800F00C00042836D000F0AEF8D4
:1004C000801B4045F5D303202DE0022837D160681A
:1004D00000F00C00082828D000F0A0F8801B404550
:1004E000F5D3F0E72878410705D56268E86822F47B
:1004F000E062024362602978080706D561682869CE
:1005000021F4605141EAC001616000F02DF8626899
:100510002C49264BC2F30312895CC84018600020A6
:1005200000F082F80020BDE8F283386800F0070090
:100530008145D7D200F00DF8D4D00120F3E76068F0
:1005400010F00C0FF1D000F069F8801B4045F6D395
:10055000B9E73968C90849EAC1013960386800F06B
:100560000700484570470000174911480A6802F023
:100570000C03082B00D0704710B500BF14A4C2F3C1
:100580008343D203E35C08D50968584314A3C1F33D
:1005900040415A5CB0FBF2F010BD18460B4948438D
:1005A00010BD024800687047001002400C00002097
:1005B00000127A0000004242800442420070004073
:1005C000002002400C1500080410024000093D0004
:1005D00002030405060708090A0B0C0D0E0F101084
:1005E000010230B4002513E050F8042BD30744BFB8
:1005F000A9F101039A18091F042942F8045BFAD2F1
:1006000013468C0744BF15809B1CC90748BF1D704B
:1006100050F8041B0029E7D130BC704701484068FE
:10062000704700BF0000002038B50D4D0D4B2A78F3
:1006300004464FF47A711868B1FBF2F2B0FBF2F0A5
:1006400000F053F850B9102C08D2002221464FF088
:10065000FF3000F023F8AC60002032BD012032BD35
:10066000000000200C0000200901020006D52F4ADE
:1006700000F00F00104400F8041C70472C4B195474
:1006800070472C4B19684FF6FF020002114000F42E
:10069000E0600843284908431860704738B5254B87
:1006A0001C68C4F30223C3F10704052C28BF0424EB
:1006B0001D1D072D34BF0023DB1E012505FA04F4A0
:1006C000641E2140994005FA03F35B1E1A40114352
:1006D000BDE83440C8E7012200F01F01174BFFE7D7
:1006E0008A40400943F82020704710B5401EB0F101
:1006F000807F01D3012010BD114C60600F214FF0AD
:10070000FF30FFF7B1FF0021A1600720206000202B
:1007100010BD04280A4904D1086840F004000860AC
:1007200070470A6822F004020A60704718ED00E082
:1007300000E400E00CED00E00000FA0500E100E05C
:1007400010E000E000F000B870470000F8B5044683
:1007500000270026002C7AD004F12405686820B90F
:10076000AE602870204600F071FA204600F0CEF905
:100770006968CA066CD401006AD1696821F488519D
:1007800041F0020169602368DFF85813E269D4F888
:1007900004C08B4204BFB2F5402F4FF40022E16841
:1007A00042EA0C02D4F808C0BCF5807F14BFBCF14B
:1007B000010F4FF48077D4F814C0BCF1010F42EA66
:1007C00041020FD131B9A169491E490341F40061C9
:1007D0000F4307E0696841F020016960A96841F0B2
:1007E0000101A960596821F469410F435F602368E2
:1007F000DFF8F4129F680F4017439F60A168B1F5BE
:10080000807F18BF012902D12669761E360521682E
:10081000CB6A23F470031E43CE622468DFF8CC1247
:10082000A3680B40934208D10022AA60696821F0B6
:10083000020141F001016960F2BD686820F0020028
:1008400040F010006860A86840F00100A86003E074
:10085000686840F0100068600120F2BD044604F1B1
:10086000240528780128704701202870204604E1DB
:100870002DE9F047044689462068DFF88412DFF846
:100880007882DFF87872884218BF4045924603D1DB
:10089000386810F4702F68D1FFF7E1FF08BF02201D
:1008A00065D0FFF7E1FF002806465BD16968DFF8F5
:1008B0004402014041F4807169602068404518D1CC
:1008C000396811F4702F14D0686840F480106860A3
:1008D0003968480505D5696821F4005141F4805113
:1008E00069606868C10446BFA86820F0060000205F
:1008F0000DE0696821F48011696040684105F0D518
:10090000686820F4005040F480506860E9E7A8600F
:10091000002129705346226A0FF235209062216A25
:100920000FF27520C862216A0FF2752008636FF01C
:100930000200226810604A462068816841F4807194
:100940008160206800F14C01206A00F01FFA2068E5
:1009500000F00FF881680CBF41F4A00141F4801150
:10096000816003E00020287000E001263046BDE8E9
:10097000F087816801F46021B1F5602F7047F8B508
:100980000A46002100F1240300911C78012C01D1BA
:100990000220F2BD01241C701F27546815680668E8
:1009A000072C08D2641E04EB8404D6F834C000F08F
:1009B0005EF8756312E00D2C08D2E41F04EB84048A
:1009C000D6F830C000F053F8356307E00D3C04EB77
:1009D0008404D6F82CC000F04AF8F56207271668A0
:1009E000946805680A2E08D30A3E06EB4606D5F839
:1009F0000CC000F036F8EC6006E006EB4606D5F8D1
:100A000010C000F02EF82C611468102C18BF112CA7
:100A100023D100683A4CA0421AD13A4805682C020A
:100A20001BD4056845F4000505601068102814D132
:100A30002F4A354D1468B4FBF5F50A20454300955F
:100A4000009800281EBF0098401E0090F8D104E0D6
:100A50000121586840F020005860002018700846B6
:100A6000F2BDB7402CEA0707B4403C437047A740AB
:100A70002CEA0707A5403D43704738B504460020DF
:100A8000009020688168CA072AD481681E4A41F014
:100A90000101816016480168B1FBF2F2009202E0A8
:100AA0000098401E009000980028F9D1FFF7B6FD8D
:100AB000054620688168C80712D4FFF7AFFD401BC8
:100AC0000328F6D304F124000022416841F010010C
:100AD0004160816841F0010181600270012032BDF6
:100AE000002032BD003C0140FDF7E1FFFE0E1FFF7C
:100AF0000C000020FEF1FFFF00280140042401400B
:100B0000002401400824014040420F0038B504464B
:100B100020688168CA0719D5816849084900816041
:100B2000FFF77CFD054620688168C8070ED5FFF7F2
:100B300075FD401B0328F6D3A06A40F01000A062A8
:100B4000E06A40F00100E062012032BD002032BDC9
:100B5000416A8A6A12F0500F1BD1886A40F4007013
:100B600088620A68906800F46020B0F5602F04BFC6
:100B7000C86800280AD1886A20F480708862886A70
:100B8000C20403D4886A40F001008862084600F07D
:100B900048BA096A0A6B1047406A00F043BA00007D
:100BA000406A816A41F040018162C16A41F00401FA
:100BB000C16200F038BA000080B54048016841F0D9
:100BC00001010160026802F001020092009942688E
:100BD00042F080524260406800F0805000900098DF
:100BE0000320FFF74EFD002200216FF00B00FFF7FE
:100BF00055FD002200216FF00A00FFF74FFD002293
:100C000000216FF00900FFF749FD002200216FF07D
:100C10000400FFF743FD002200216FF00300FFF7FF
:100C20003DFD002200216FF00100FFF737FD00229B
:100C300000214FF0FF30FFF731FD2148016821F01E
:100C4000E06141F08061016001BD000030B5044603
:100C500085B020681B4988422DD118481A4D02687A
:100C600042F4007202602022006800F400700090DC
:100C7000032300990192029301A9144800F0D4F9CA
:100C80001348286000218020E86069604FF480608C
:100C900000224FF400716861AA602961AA61EA61CB
:100CA000284600F02FF820B15FF0760109A000F08F
:100CB0007FFB25626C6205B030BD00001810024059
:100CC00004000140002401401000002000100140F9
:100CD00008000240443A5C776F726B5C436F725459
:100CE00065785C576F726B5F315C5372635C7374D1
:100CF0006D3332663178785F68616C5F6D73702E2A
:100D00006300000070B508B9012070BD0368DFF80A
:100D1000AC52AB4200F128040BD2DFF8A412CA187F
:100D20001426B2FBF6F29200DFF89852A2616561D8
:100D30000AE0DFF89412CA181425B2FBF5F292000B
:100D4000DFF88812A2616161022280F821201D680B
:100D5000416882686FF30D150D43C1681543026940
:100D60000D434169154382690D43C16915430D4324
:100D70001D60002323606360A360E36023610122A0
:100D800080F8212080F82030002070BDF8B504469E
:100D9000002594F82000012801D10220F2BD94F82A
:100DA00021600120012E84F8200024D1022004F1CA
:100DB0002C0684F82100F560206807687F087F0012
:100DC0000760204600F01CF92168306820B10A68ED
:100DD00042F00E020A6008E0086820F00400086093
:100DE0002068016841F00A0101602068016841F053
:100DF0000101016002E084F8205002252846F2BD7E
:100E00002DE9F84F00F1280204275169704E0B6854
:100E10000468DFF8D0B125689169DFF8C4C1DFF854
:100E2000BCE1DFF8B481DFF8AC91DFF890A18DF878
:100E300000109DF800108F403B424AD0690748D50A
:100E40002368990603D4236823F0040323604FF436
:100E500080230168B1424FF480444FF4806511D97A
:100E6000514508BF04230AD0494508BF402306D096
:100E7000414508BF2B4602D0714508BF2346CCF838
:100E8000003020E0594517D0574FB94216D0574F80
:100E9000B94215D0564DA9420EBF2346554CA1422A
:100EA0000FD0554DA94208BF4FF4800309D0B1427D
:100EB00007D14FF0806304E0042302E0402300E008
:100EC0002B464E490B605168002975D0BDE8F44FA0
:100ED00008479DF8001002278F403B424FD0A907DA
:100EE0004DD52368990606D4236823F00A032360AE
:100EF000012180F821104FF400330168B1424FF412
:100F000000544FF4007511D9514508BF02230AD08F
:100F1000494508BF202306D0414508BF2B4602D0D3
:100F2000714508BF2346CCF8003020E0594517D062
:100F30002D4FB94216D02D4FB94215D02C4DA94294
:100F40000EBF23462B4CA1420FD02B4DA94208BF08
:100F50004FF4001309D0B14207D14FF0007304E001
:100F6000022302E0202300E02B4624490B600023EB
:100F700080F820301168F9B1BDE8F44F08479DF8BA
:100F8000001008268E40334216D0290714D5236856
:100F900023F00E0323600124916953698C405C6047
:100FA0000121116180F82110002180F82010916842
:100FB00011B1BDE8F44F0847BDE8F18F08040240C5
:100FC000F8FFFDBF00000240F8FBFDBF0004024037
:100FD000800002401C0402403004024044040240ED
:100FE00004040240080002401C000240300002409D
:100FF00044000240580002406C00024004000240DD
:1010000070B5046CC66B0125A5407560046863600B
:101010004068102802D1A260E16070BDA160E2606A
:1010200070BD7047704770472DE9F84302460020B5
:101030000025654BDFF8949101270E68AF403E40D4
:10104000BE4240F0B6804C686CB3012C20D0022C1C
:1010500023D0032C32D0112C1CD0122C20D0DFF83E
:1010600070E174451CBFDFF86CE174451BD0DFF8FC
:1010700068E174451CBFDFF864E1744513D0DFF804
:1010800060E174451CBFDFF85CE174450BD016E0ED
:10109000C86814E0C868001D11E0C86808300EE098
:1010A000C8680C300BE0886808B9042007E0012804
:1010B00019BF082057610820176100E00020B6F52D
:1010C000807F03D294464FEA850E05E0A5F108041F
:1010D00002F1040C4FEA840E0F27DCF8008007FAB7
:1010E0000EF428EA040400FA0EFE4EEA0404CCF8DA
:1010F00000404C68E4005CD5D9F80040DFF8E8E037
:1011000044F00104C9F800404FEA950CD9F80040BA
:1011100004F0010400944FEA8508009C5EF82C401E
:1011200008F00C0807FA08F724EA07072F4CA24238
:1011300008BF002418D02E4CA24208BF012413D0AF
:101140002C4CA24208BF02240ED02B4CA24208BF56
:10115000032409D0294CA24208BF042404D0284CFF
:10116000A2420CBF0524062404FA08F427434EF8D3
:101170002C70F7434C68E4031C684CBF34433C407C
:101180001C604C68A4035C684CBF34433C405C600A
:101190004C68E4029C684CBF34433C409C604C6803
:1011A000A40203D5DF683E43DE6002E0DE6837401C
:1011B000DF606D1C0F2D7FF63FAFBDE8F18302B9F4
:1011C000090401617047000000040140181002404A
:1011D0000000111000001210000021100000221069
:1011E00000003110000032100800014000080140EA
:1011F000000C0140001001400014014000180140A3
:10120000001C014078B585B000F0D4F800F08EF8ED
:10121000424D434C686840F04000686000226868B6
:1012200000F0400000900098696841F0100169608A
:101230003C21686800F01000009000982046FFF7FD
:10124000BEFF3C2101910122029200210391022262
:10125000049201A92046FFF7E7FE286840F001004C
:101260002860002229682F4D01F001010091002122
:1012700000980B20FFF712FA0B20FFF72CFA2A48F0
:1012800028600021A9600020012268614FF46021DC
:101290006860EA60E9612A612846FFF757FA00B101
:1012A000FEE70F2001210090019100220292694681
:1012B0002846FFF764FB00B1FEE70021009104E03F
:1012C000012204212046FFF77AFF012269462846C1
:1012D000FFF7CEFA00221C212046009EFFF76FFF89
:1012E000C6F30B0640F2E9308642E9DB40F2D171E9
:1012F0008E4202DA01220821E4E740F6B930864244
:1013000002DA01221021DDE740F6A1708642A7BF74
:1013100001221C2101220C21D4E7000014100240FC
:1013200000180140540000200024014000B54FF493
:101330008031002295B00C910D92139101200B90F9
:101340000F9002224FF4E011129214910BA8FEF7B5
:10135000EFFE00B1FEE7022101910F204FF4806102
:101360000090002203910292049202216846FFF746
:101370006BF800B1FEE702214FF40042059107929D
:1013800005A800F029F800B1FEE7FFF70AF94FF4CD
:101390007A71B0FBF1F0FFF7A8F90420FFF7B9F973
:1013A000002200214FF0FF30FFF778F915B000BDA3
:1013B000FEE7000080B50748016841F010010160B8
:1013C0000320FFF75EF90020FFF72EF9FFF7F4FB8B
:1013D000002002BD002002402DE9FC410646354DAB
:1013E0003078C10750D5A8690024C10009D4A86984
:1013F00040F08050A8610124A86900F0805000905E
:1014000000982D4F3868C10519D4386840F48070B1
:101410003860FFF703F980463868C1050FD4FFF73D
:10142000FDF8A0EB08006528F6D303203FE0FFF7A6
:10143000F5F8C01B41F28931884217D3F5E7E86916
:1014400010F440701EBF716801F44071884210D0E2
:101450001A49E86901220A60002320F440700B60F9
:10146000E861C00705D5FFF7D9F80746E8698107A5
:10147000DDD5EA69706822F440720243EA611CB16A
:10148000A86920F08050A8613078810705D52A68C6
:10149000B06822F4404202432A603178C80605D57C
:1014A0002968706921F48001014329600020BDE8AA
:1014B000F6810000041002400070004040044242E7
:1014C00010B50E4A0E49106840F0010010605368D4
:1014D0000C480B405360146804401460116821F4F8
:1014E000802111604FF41F01506820F4FE0050600D
:1014F00091604FF00060044A106010BD001002407F
:101500000000FFF8FFFFF6FE08ED00E0000000001D
:1015100000000000010203040607080930B450F877
:10152000041B79B10268436802440830DC0744BFF9
:10153000A9F10104E31852F8045B43F8045B091FA6
:10154000F9D1ECE730BC70477047FEE7FEE7FEE7F5
:10155000FEE770477047704780B500F009F8BDE8B6
:101560000140FFF7EFB80148FFF74ABC1000002028
:1015700002494A68087882184A60704700000020D3
:1015800010B5074979441831064C7C44163404E000
:101590000A68081D114488470146A142F8D110BDD0
:1015A00008000000280000003BF0FFFF740000006E
:1015B000100000200000000065FFFFFF1000000089
:1015C00064000000000000200000000000F00DF8A2
:1015D000002801D0FFF7D4FFAFF300800020AFF365
:1015E0000080FFF70FFE00F002F80120704700F0C6
:1015F00001B800000746384600F002F8FBE700009B
:1016000080B5AFF30080024A11001820ABBEFBE7A3
:10161000260002000148804701480047C114000825
:101620003516000801000000000000001000000056
:1016300000A24A04AFF30080AFF30080FFF7C6FFBB
:10164000FFF7FEBFFFF7FEBFFFF7FEBFFFF7FEBFCE
:10165000FFF7FEBFFFF7FEBFFFF7FEBFFFF7FEBFBE
:10166000FFF7FEBFFFF7FEBFFFF7FEBFFFF7FEBFAE
:10167000FFF7FEBFFFF7FEBFFFF7FEBFFFF7FEBF9E
:10168000FFF7FEBFFFF7FEBFFFF7FEBFFFF7FEBF8E
:10169000FFF7FEBFFFF7FEBFFFF7FEBFFFF7FEBF7E
:1016A000FFF7FEBFFFF7FEBFFFF7FEBFFFF7FEBF6E
:1016B000FFF7FEBFFFF7FEBFFFF7FEBFFFF7FEBF5E
:1016C000FFF7FEBFFFF7FEBFFFF7FEBFFFF7FEBF4E
:1016D000FFF7FEBFFFF7FEBFFFF7FEBFFFF7FEBF3E
:1016E000FFF7FEBFFFF7FEBFFFF7FEBFFFF7FEBF2E
:1016F000FFF7FEBFFFF7FEBFFFF7FEBFFFF7FEBF1E
:10170000FFF7FEBFFFF7FEBFFFF7FEBFFFF7FEBF0D
:10171000FFF7FEBFFFF7FEBFFFF7FEBFFFF7FEBFFD
:0C172000FFF7FEBFFFF7FEBFFFF7FEBFA4
:0400000508001635A4
:00000001FF
