:020000040800F2
:10000000B0050020B1340008B5330008B73300084C
:10001000B9330008BB330008BD33000800000000FE
:10002000000000000000000000000000BF330008D6
:10003000C133000800000000C3330008C5330008C6
:10004000DB340008DF340008E3340008E73400083C
:10005000EB340008EF340008D3330008D93300082C
:10006000DF330008E5330008EB330008F334000801
:10007000F7340008FB340008FF340008033500089B
:10008000073500080B3500080F3500081335000848
:10009000173500081B3500081F35000823350008F8
:1000A000273500082B3500082F35000833350008A8
:1000B000373500083B3500083F3500084335000858
:1000C000473500084B3500084F3500085335000808
:1000D00057350008F13300085B3500085F3500082C
:1000E00063350008673500086B3500086F35000878
:1000F00073350008773500087B3500087F35000828
:1001000083350008873500088B3500088F350008D7
:100110009335000897350008F73300089B35000831
:100120009F350008A3350008A7350008AB35000847
:100130002DE9F04F0FF2A41CA1B0DCE90089CDE954
:1001400000892A9DDFF8109C049100248DF843500B
:100150000D944FF0FF38824616461F460FE0B34617
:100160002C461BF8011B0498D0470028049000F08F
:10017000A2800D98401C641E0D90F2D17619307843
:10018000252808D1002100220791089209910A929E
:100190000B910C920DE06A464146304600F0F4FFA8
:1001A000050001D10D98A1E0D9D50125E6E741F080
:1001B000010116F8010F2028F9D023280CD02B2894
:1001C00004D02D2805D0302809D076E041F0020176
:1001D000EFE741F00401ECE741F00801E9E741F005
:1001E0001001E6E70F9209E00F98484505DA00EBA9
:1001F000800402EB4402303A0F92761C3278A2F16E
:1002000030000A28F0D330782E2818BFCDF8388077
:1002100022D116F8010F2A2807D138683860761CD9
:1002200050F8042B38600E9216E02D280CBF761C77
:10023000002000220E920AE040B90E9A4A4505DAE3
:1002400002EB820403EB4403303B0E93761C3378BD
:10025000A3F130020A2AEFD3ADF8401021A0317883
:1002600000F09CFF08B116F8010B8DF842009DF8D4
:100270004200682804D1307868280AD1622105E05C
:100280006C2804BF30786C2803D171218DF842109E
:10029000761C12A806903A4616F8013B02A9504671
:1002A00000F064F838B912AA02A9504600F0CAF961
:1002B00000287FF564AF404618E02A2892D13A68BA
:1002C0003A6052F8040B3A6000280F9003D5404280
:1002D0000F9041F00401761C95E70000000000003B
:1002E00000000000686A6C747A4C000021B0BDE820
:1002F000F08F622820D0682811D06A2803D06C289B
:1003000027D0712825D10868C01D20F0070008609B
:10031000D0E9002308300860194610467047002ACB
:100320000A680A60106803D0121D0A6000B217E064
:10033000121D0A6080B217E0002A0A680A6010687D
:1003400003D0121D0A6040B20AE0121D0A60C0B25A
:100350000AE0002A0A680A60106803D0121D0A60C9
:10036000C1177047121D0A60002170477CB50D4609
:1003700011461C462E69B4F1250200F051811C3A49
:1003800000F08680121F022A40F282800E3A00F0AE
:100390000B81521F5AD0093A7AD0921E16D0521EA3
:1003A00035D0521E022A73D9121F30D0521F00F0CE
:1003B0009A80521E4AD0521E00F0E480D21E00F0F5
:1003C0000181921E42D0D21E40D02FE195F83A40D2
:1003D0006C2C09D06869421C6A610A680A6052F88C
:1003E000043B0A6033542BE10A680A6052F8043B6C
:1003F0000A600093002201924FF0FF332B636A469C
:10040000294600F09AF9002840F11A8105E195F893
:100410003A000122FFF76DFFC5E900010023994270
:1004200004DA6869411C69612D220DE0288F81077B
:1004300004D56869411C69612B2205E0C00722D5FB
:100440006869411C6961202232541CE095F83A0029
:100450000022FFF74EFFC5E9000195F838000107BB
:1004600011D5D5E900230020834208BF82420AD07B
:1004700044F02000782806D1686930213154401CAE
:10048000421C6A613454214668693044E86087E060
:100490000868C01D20F007000860D0E9002308307C
:1004A0000860C5E90023D5E90001C80F04D06869D8
:1004B000411C69612D220DE0288F810704D56869F0
:1004C000411C69612B2205E0C00704D56869411C05
:1004D00069612022325468693044E8602146284628
:1004E00000F03AFAACE005F13A02507820B14FF052
:1004F000FF340FF6343074E01078622808D0682892
:1005000024D06A2812D06C282ED071280ED02BE06F
:100510000A680A6052F8040B0A6020B94FF0FF34F1
:100520000FF61C305DE0E96A017089E00A680A6034
:1005300052F8040B0A6020B94FF0FF340FF6003078
:100540004FE0EA6AD317C0E9002379E00A680A603D
:1005500052F8040B0A6020B94FF0FF340FF6E02088
:100560003FE0E96A01806BE00A680A6052F8040B18
:100570000A6020B94FF0FF340FF6C42031E0E96A79
:1005800001605DE00A680A6052F8040B0A6000210D
:1005900020F0000221F0FF33C5E90023EE6078214E
:1005A000284600F02DF94BE06C2285F83A200B68C4
:1005B0000B6053F8042B0B6052BB4FF0FF340FF667
:1005C000B4200EE095F83A206C2AF0D00868086054
:1005D00050F8044B0860EC603CB94FF0FF340FF664
:1005E000782000F003FE201A76BD2E6B002E04D575
:1005F000204600F01BFE044608E03246002120465B
:1006000000F03EFE002814BF041B3446AC6117E026
:10061000294600F092F8002812D54FF0FF3076BD41
:100620006869411C69612522325409E06969481CE6
:10063000686125227254210002D0431C6B6134543E
:10064000002076BD2DE9F0410E4605469046726BBE
:100650007069316AB46A121AB069521A716A121A50
:10066000F069521A121A96F83800141B41070DD47B
:10067000002C0BDD2746B0682021A8470028B06079
:1006800057D0F06A401C7F1EF062F4D17369424675
:100690003146284600F0B0FC00284AD1376A002FC6
:1006A0000ADDB0683021A8470028B06041D0F06A68
:1006B000401C7F1EF062F4D1B369F26831462846CF
:1006C00000F09AFCA8BB776A002F09DDB0683021E2
:1006D000A847B06068B3F06A401C7F1EF062F5D195
:1006E000F068B169F36942183146284600F084FC8D
:1006F000F8B9B76A002F09DDB0683021A847B060AB
:10070000B8B1F06A401C7F1EF062F5D196F838004F
:1007100041070BD5002C09DDB0682021A847B06047
:1007200038B1F06A401C641EF062F5D10020BDE8CB
:10073000F0814FF0FF30BDE8F0812DE9F8470D461C
:10074000A3B02F6B002F0646904648BF6FF00047BE
:100750000FF63C1400F0C0FDD4E90023696B40188B
:10076000CDE90123812828BF4FF0FF3042D2002479
:10077000002F33DDD8F8001001AA684600F006FD0E
:100780008146B9F1000F38D4D8F8000010B9B9F19A
:10079000010932D44F4521DB6869484481280AD3D6
:1007A0000021696303AA29463046FFF74BFF040086
:1007B00014D40020686103ABD5F814A04A466946FA
:1007C00003EB0A0000F08EFDCA44C5F814A058F8E7
:1007D000040B002818BFA7EB0907C9D14CB903AA1D
:1007E00029463046FFF72EFF044614B90020686101
:1007F0006863204624B0BDE8F0874FF0FF34F8E787
:100800002DE9FC4707468C463E69BCF16F0F08BFD7
:10081000082405D04CF02000782814BF0A241024A6
:100820003C25D7E90023BCF1640F18BFBCF1690F68
:100830009046994606D100218B4203DAD8F1000890
:1008400069EB49094FF0000AD14508BFD0451FD1D7
:10085000386BE8B9082C4BD197F83800010747D519
:1008600030203B2586F83B0042E000280ED597F863
:10087000380000F01400102808D17B6B7969386AC1
:100880005B1A1B1A9A1A002AC8BF3A62BDE8F3879E
:100890008DF800C0404649462246E31700F076FD39
:1008A0003032D0B26D1E3A28019504DB9DF800006D
:1008B000A0F151018A187255404649462246E31775
:1008C00000F064FD89468046D14508BFD04503D07D
:1008D000F86871198842DDD3082C09D197F83800DF
:1008E000010705D5705D302802D06D1E302070558F
:1008F000C5F13C02BA617119F960386B8242B4DA11
:10090000821A3A624FF6EF70398F01403987BDE89D
:10091000F3872DE9D04306460F4614464FF00008F2
:10092000DFF8389412E0E00707D542464B463046E0
:10093000394600F043FE06460F46404649464246C9
:100940004B4600F03BFE641080468946002CEAD1FD
:1009500030463946BDE8D0832DE9F34F054641F0D6
:1009600020048DB0D5E90089612C02AE09D0286B36
:10097000002848BF062003D408BF672C01D10120FE
:100980002863D5E9002358004015401C0ED11903F7
:100990000CD00320A8619DF8381061391A2902D2C1
:1009A0000FF2F46111E00FF2F4610EE05900491505
:1009B000491C0FD118030DD10320A8619DF83810F0
:1009C00061391A2914D30FF2DC61E868032200F0C0
:1009D00089FCD3E1194621F00043B3F5801F10468E
:1009E0000DD20027BB4208BFBA42019703D111E0E4
:1009F0000FF2AC61E9E701AA00F0B2FE0AE0DFF80D
:100A0000607307EB1352DFF85C3301921940DFF893
:100A100058331943C5E90001612C0ED1E868302133
:100A20000170821CEA609DF8381061290CBF7821A2
:100A3000582141706869801C6861D5E900AB2BF0D2
:100A4000004300202AF00002834204BF82420023B8
:100A500000F05B81612C40F0AA80286B002847BF22
:100A600021210091401C0090009F7F1C4046494678
:100A70000022002300F0ACFED94601998DF8082031
:100A800038BF89F00049091F002FD04601910DF1B0
:100A9000090040F34981B349DFF8D0B20C91064612
:100AA000404649460022002300F0AAFE80F03B8128
:100AB0004800400D00F11C0211D0002A0FDD40F269
:100AC000FF70824205DB09F0004040EA0B01002084
:100AD00013E00C98014041EA025140460DE029F034
:100AE0000043002028F00002834208BF82420FBF6B
:100AF00040461C22404600F09BFE8046894600F09E
:100B000035FFFF1F002F044609DD00F04DFF0246B0
:100B10000B464046494600F059FF80468946F01D85
:100B2000072104E004F00F0200F8012D2411002C2D
:100B300001DD491EF6D5491E5CBF002200F8012DDB
:100B4000F9D5ECE00020194602AA0A4400E05B1E39
:100B500012F80149491E8442F9D00F2804D10DF141
:100B60000900425C521C4254002904D50198001D22
:100B700002AE5B1C0190591E12D49DF83800721809
:100B8000A0F13A07147804F130085FFA88F43A2C9F
:100B9000A8BFB844491E02F80189F3D58DF8380082
:100BA000286B002840F1B080591E2963ACE0404614
:100BB00049460022002300F00BFE019938BF89F05E
:100BC000004947F297504143694A91FBF2F2019282
:100BD000D2F1070204DD40464946FFF79AFE0AE0DB
:100BE000524200206349FFF794FE02460B464046FE
:100BF000494600F05DFF8046662C286BDFF878B12F
:100C000006BF019F0A3706273F18142FC8BF1427B5
:100C100030208DF8080089460DF1090000E03046CB
:100C2000002F34DD06464046494601F065F801468E
:100C30000A4606F1080304200A26B2FBF6F606EB84
:100C4000860EA2EB4E02303203F8012C0A22B6FBCC
:100C5000F2F202EB820EA6EB4E063036401E03F88F
:100C6000026DE9D1083F002F03F10806D7DD0846E1
:100C700001F056F802460B464046494600F0A6FEF3
:100C800000225B4600F09AFC80468946CBE70DF1D6
:100C90000901401A0DF1090604E00199491E401EA0
:100CA0000191761C31783029F7D0662C02D1019958
:100CB000491C03E0652C0CBF012100212B6BCB18D4
:100CC0009842B8BF431E002B1ED4834204DAF05C66
:100CD0003528A8BF392000DA30201946721E02EBF1
:100CE000010800E05B1E18F80199491E8145F9D002
:100CF000392802D1705C401C7054002904D5019839
:100D0000401C16465B1C0190019800B200901BB27B
:100D10009DF838103246284600F034F82EE0C61D03
:100D2000002F3FF7BDAE30460DF10901401A009982
:100D300003468842C8BF0B46002B0DF109063FF55C
:100D40002FAF8342BFF6FEAE0DF10900C15C07294B
:100D50007FF7F8AE0F20F6E6CBCCCC0C0000244099
:100D600002FCFFFFFFFF0F800000E03F0000F07F6C
:100D7000A08601000000F03F84D797410FB0BDE886
:100D8000F08F00002DE9F84783B006468A461746E3
:100D9000984600F0FDF9B8F1000F406A356B90F805
:100DA000009002DC4FF00108BFA74AF02000BDF917
:100DB0003040662808BF641C15D0672840F0848046
:100DC00014F1040FC0F28680AC4280F2838096F862
:100DD0003800641C010702D4A845B8BF454620B2BC
:100DE0002D1A48BF00250FFA84FAF068B169BAF1EC
:100DF000000F25DC4A1C30234354002D03DC96F8F9
:100E00003800010703D5F06800F80290521C15EB7A
:100E10000A0FB8BF6C4220B2441941424445B8BFE2
:100E2000A046B26171620FFA88F5F561F068B369A6
:100E30002A463946184400F055FA641BB462C4E0EF
:100E400022B29045084417DA4246394600F04AFA81
:100E5000B0694044B061AAEB0801002D716203DC67
:100E600096F838100A0705D5F16801F80090F06986
:100E7000401CF061B562A8E0394600F033FAB06971
:100E8000002D5044A8EB040803DC96F838100A073C
:100E900003D5F16801F80090401CB0610FFA88F0AA
:100EA0008542F368B069B8BFA8460FFA88F207EB2D
:100EB0000A01184400F016FAB1690FFA88F00144EB
:100EC000B161281A706280E0BAF1610F14D14FF05D
:100ED000700A16E0A84504DA96F838100A0758BFD9
:100EE00045466D1E48BF0025BAF1670F14BF4FF08D
:100EF000450A4FF0650A04E0BAF1410F08BF4FF010
:100F0000500AB169F368481CB061002D17F8012B35
:100F10005A5403DC96F838100A071BD5F168431CB5
:100F2000B36101F80090002D14DDA8F101080FFA5B
:100F300088F039468542F768B8BFA8460FFA88F2AC
:100F4000F81800F0CFF9B0690FFA88F108446D1A6B
:100F5000B0617562F068B1690844002C80F800A0A7
:100F600003D42B224270811C03E02D214170644286
:100F7000811C00206A460AE023460A2493FBF4F40D
:100F800004EB8405A3EB450302F8013B401C24B2AB
:100F9000002CF1DC012806DC4AF02002652A04BF9F
:100FA000302201F8012B48B9302001F8010B07E08D
:100FB000401E1DF80030303301F8013B0028F7DCFB
:100FC000F268B0691044091AF16196F8380000F02F
:100FD000140010280DD17269B169706A8A18F1691C
:100FE0008218B06A8A188218706B8242BCBF821A5B
:100FF000326204B0BDE8F087F8B505460E461746E4
:101000001C46002074B117F8011BB068A847B060F7
:1010100030B1F06A401CF0620020641EF3D1F2BDD2
:101020004FF0FF30F2BD00007072696E74665F733E
:101030003A20256E20646973616C6C6F776564007B
:101040007072696E74663A2062616420256E206158
:101050007267756D656E74007072696E74665F7329
:101060003A2062616420257320617267756D656E38
:10107000740000007072696E74665F733A2062617A
:101080006420256C7320617267756D656E74000055
:1010900000000000000000006E616E004E414E0036
:1010A000696E6600494E46003000F0B40246106892
:1010B00095681318506803EB5004C0071DD54D44C4
:1010C0001BE013F8017B05F8017B491EF9D1A0B1A3
:1010D000B60813F8011B06F00306032E08BF13F829
:1010E000016B01EB06214942801C294405D011F80F
:1010F000016B05F8016B401EF9D1A3420ED013F825
:10110000016B16F0030104BF13F8011BC91C300961
:101110000F28DAD113F8010B0F30D6E7F0BC02F13B
:101120000C0070471B48704770B45368D418042BE8
:1011300009DA41B1057804F8015B10F8016B16B1CA
:101140005B1C491EF3E7536070BC704738B514460A
:101150001D4661B1FFF7E8FF61686A6B2046904762
:101160006FF00102811A02D0491E01D001E003E0B4
:1011700005E00021616032BD6FF0010032BD4FF02B
:10118000FF3032BDDA6B1047024BDFE7014BF9E766
:101190000148704748000020100000200278C9B2C2
:1011A0008A421AB11CBF10F8012FF9E718BF0020BE
:1011B000704730B4002513E050F8042BD30744BF28
:1011C000A9F101039A18091F042942F8045BFAD215
:1011D00013468C0744BF15809B1CC90748BF1D7070
:1011E00050F8041B0029E7D130BC704780B500B926
:1011F00006A005490B681BB122220021984701E097
:1012000000F09BFD222002BDA8010020636F6E73D9
:10121000747261696E742068616E646C65723A20E4
:10122000626164206D6573736167650000F101039D
:10123000810704D010F8011B820781B1FAD102683E
:10124000A2F10131914311F0803104BF50F8042F15
:10125000F6E709BAB1FA81F100EBD100401CC01ADF
:101260007047B1F5807F02D34FF0FF3070470170B7
:10127000012070470078401E8041C043C00F704776
:10128000C9B2830706D0521E22D310F8013B9942FF
:10129000F7D11FE0083A13D302F1040241EA012119
:1012A00041EA014150F8043B121F21BF4B40A3F11A
:1012B000013C2CEA030C1CF0803FF3D0C9B2001FA4
:1012C000083210F8013B521E28BF91EA030FF8D8EC
:1012D00018BF0120401E704780B5FFF723FF006C48
:1012E00002BD000062B38B0708D0521E11F8013B0B
:1012F00000F8013B00F024808B07F6D1830740F013
:10130000208000BF103A07D330B4B1E83810103A4B
:10131000A0E83810F9D230BC530724BFB1E8081058
:10132000A0E8081044BF51F8043B40F8043BD20742
:1013300024BF31F8022B20F8022B44BF0B78037036
:101340007047121F17D35B0009D151F8043B20F8F6
:10135000023B1B0C121F20F8023BF6D20BE051F8A7
:10136000043B00F8013B1B0A20F8023B1B0C121F38
:1013700000F8013BF3D238BF121D521E24BF11F8F2
:10138000013B00F8013BF8D870470000BBBBE1B15E
:10139000B2F5803F80F07E80022A1ED98C46B1FBD8
:1013A000F2F102FB11C31B0443EA1043B3FBF2FC4E
:1013B00002FB1C3380B240EA0343B3FBF2F002FBB2
:1013C000103240EA0C4000237047022A05D98446B7
:1013D000B0FBF2F002FB10C270474AB105D100F039
:1013E000010249085FEA300070470022002370477D
:1013F00000F0A6BC0B0002000021002070479042C4
:1014000071EB030CF6D3B3F5803F2FD2F0B5B3FAEE
:1014100083F7B1FA81F4A7F10F0E3D1B5340CEF1D3
:10142000200602FA0EF2F3415340B5F10F0746D8F9
:101430000F3C2C444140C4F12006A040F141414002
:10144000B1FBF3F603FB1611A2FB0645001BA941F5
:1014500002D2761E8018594180EA010221FA0EF369
:1014600062FA0EF200215A403046F0BD30B4B1FBB2
:10147000F3FC03FB1C11A2FB0C45001BA94103D28A
:10148000ACF1010C8018594130BC02460B46604655
:1014900000217047B2F1807F65D3F0B5B2FA82F7D0
:1014A000B1FA81F4C7F10F063D1B22FA06F307F1EA
:1014B000110EF24120355A40B5F10F07B8D941401D
:1014C000C4F12006A040F1414140B1FBF3FC03FB15
:1014D0001C11A2FB0C45001BA94103D2BCF1010C5D
:1014E000801859410F2F12D30F3FC90341EA5041D1
:1014F000B1FBF3F603FB1611A2FB0645D4EBC0309B
:10150000A94102D2761E8018594146EACC3C07B365
:101510004140C7F12006B840F1414140B1FBF3F62C
:1015200003FB1611A2FB0645001BA94102D2761E41
:101530008018594180EA010221FA0EF3C7F1200414
:1015400062FA0EF20CFA07F05A402CFA04F130431A
:10155000F0BD80EA010221FA0EF3002162FA0EF2D8
:1015600060465A40F0BD8C46B1FBF2F102FB11C35C
:101570001B0243EA1063B3FBF2FC02FB1C331B02A9
:101580004CEA002043EA1063B3FBF2FC02FB1C337D
:101590001B024CEA002043EA1063B3FBF2FC02FB9F
:1015A0001C331B024CEA002043EA1063B3FBF2FC3D
:1015B00002FB1C324CEA002000237047B0B581EAE0
:1015C000030C0CF0004C40F2FF7515EA11541DBFDE
:1015D00015EA1357AC42AF4239E0E41923EA455308
:1015E00043F48013C90241F0004141EA505EC70252
:1015F0001100A7FB020200284FF00000EEFB0120C3
:101600004FF00001E3FB072118BF42F00102401830
:1016100000214941E3FB0E01A4F580640F0302D2CF
:1016200052004041494154F101046CDD470872F118
:10163000004250F1000051EB0451A1F580115CBF54
:1016400041EA0C01B0BD4CEA05510020B0BD05EAED
:101650001357AC4214BFAF4241E050EA410E1CBFE9
:1016600052EA430E02E061460020B0BD24423C44F1
:101670001BD15FEA070EF6D0090302BF0146002026
:10168000AEF1140EB1FA81F7AEEB070401FA07FED2
:101690000C37C7F1200100FA07F7C8404EEA000EE8
:1016A00023EA455343F48013A2E733F00043B3FA2F
:1016B00083F704BFB2FA82FE77440B3FE41BB7F115
:1016C000200E2FBF02FA0EF3BB40C7F1200E22FA04
:1016D0000EFE38BF43EA0E03BA40641C82E750EAAC
:1016E000410E14BF52EA430E6FF000014FF4001791
:1016F00017EB430F8ABF194617EB410FB5E74CEACA
:1017000005510020B0BDD4F10104B4F120070FDA77
:10171000C4F12007520828BF42F0010210FA07F571
:1017200001FA07F7E1BF2A43E0403843E1400FE008
:10173000352C98DCC7F1200452EA400220FA07F267
:1017400018BF42F0010231FA07F0A1400A4300211C
:1017500072F1004250F1000051EB0C01B0BD0000ED
:1017600010B5144600F002F8226010BDC1F30A5310
:1017700043B14A0012F5001F28D2A3F2FE32A1EBBA
:101780000251704750EA410C20D001F0004C31EA80
:101790000C01B1FA81F204BFB0FA80F3D2180B3A0F
:1017A000B2F120032CBF00FA03F1914041EA0C0191
:1017B0003EBFC2F1200C20FA0CF319439040524274
:1017C00040F2FD33D21A01EB0351704700227047FB
:1017D0004FF4001C1CEB410F94BF1CEB430F09E0BE
:1017E00041EA030C50EA4C0C52EA0C0C03D2994229
:1017F00008BF9042704714BF8B428242704700007E
:101800004FF4001C1CEB410F94BF1CEB430F09E08D
:1018100041EA030C50EA4C0C52EA0C0C03D28B4206
:1018200008BF8242704714BF99429042704700003F
:10183000124254D440F2FF7C1CEA11530FD063458E
:1018400031D09B1863453CBF01EB0251704701F05A
:10185000004141EA0C510020AFF30080704750EA8C
:10186000410320D001F0004C91EA0C011CD0B1FAE8
:1018700081F30B3B9A420DD9D21A994051EA0C01DF
:10188000C3F1200C20FA0CFC61449840531C40F238
:10189000FF7CD7E7914041EA0C01C2F1200C20FA0D
:1018A0000CF3194390407047B0FA80F31533202BA6
:1018B000E0D3202AEED3203A203B9A4209D9D21A0B
:1018C00000FA03F141EA0C010020531C40F2FF7CB6
:1018D000B8E700FA02F141EA0C01002070475242D9
:1018E00040F2FF7C1CEA11530DD06345DBD0B2EB14
:1018F000030C3CBFA1EB025170470CF1010221EA3D
:10190000035141F4801150EA410CCCD001F0004C5D
:10191000352A27DC30B481EA0C01B2F1200309DA60
:10192000C2F12003044601FA03F5D0402843D14018
:101930009C400CE0C3F12002450020FA03F418BFDC
:1019400044F0010421FA03F091400C43002174F1AA
:10195000004550F1000051EB0C01244230BC7FF4F3
:101960007BAF70476146002076E70000C1F30A5361
:1019700040F2FE329B1A14DDD3F120034FEAE172EC
:1019800008DDC90241EA505141F00040D8408018BA
:101990005040704703F2E13010B1D24382F0004072
:1019A0007047002070470000C11768B14840401AD6
:1019B000B0FA80F29040D21CC907C2F5846241EAB5
:1019C000025202EBD02140057047000070B44FF086
:1019D000004591EA030F40F1B5816B40841A71EB29
:1019E000030603D2001BB141121973414FF4001CCE
:1019F0001CEB410F34BF7CEB430442E00C0DA4EB25
:101A00001356352E4FDC45EAC323DB0A45EAC121D4
:101A1000C912B6F120050DDD63FA05F6EB4086EA42
:101A20000305124218BF45F00105C01851F100012D
:101A30000CD213E062FA06F5F2405540F3415A40E9
:101A4000B340F3405A408018594107D349085FEA30
:101A500030005FEA350528BF45F0010501F580112A
:101A6000420875F1004250F1000041EB04514E0074
:101A700016F5001F70BC38BF70470020090D09051E
:101A800070471CEB410F10D252EA43060BD0BCEB5F
:101A9000410F05D80C0DAB43661E342EB6DD02E0B7
:101AA000AB438018594170BC704770BC7047000050
:101AB000F0B540F2FF7581EA030C0CF0004C15EA1A
:101AC00011541DBF15EA1357AC42AF42E5E0BC41CB
:101AD000C1F31301C3F31303801A994143F4801334
:101AE00004D2641E4000494180185941C90241EAAC
:101AF0005051B1FBF3F603FB1611A2FB0675D7EBB1
:101B0000C020A94102D2761E80185941C90241EA7B
:101B10005051B1FBF3FE03FB1E11A2FB0E75D7EB78
:101B2000C020A94103D2AEF1010E801859418902AB
:101B300041EA9051760546EA8E2EB1FBF3F603FB9F
:101B40001611A2FB0675D7EB8020A94102D2761EA2
:101B500080185941C90241EA50514EEA060EB1FBC4
:101B6000F3F603FB1611A2FB0675D7EBC020A941C3
:101B700002D2761E80185941C90241EA5051B1FB88
:101B8000F3F703FB1711A2FB0735D3EBC020A941E4
:101B900067F100070CBF004247F0010766F3D52745
:101BA0004FEA1E31B80814F5806412DDBD0775F1E7
:101BB000004250EB0E5051EB045111F5801F5CBFF9
:101BC00041EA0C01F0BD4CF07F6141F0E0410020A2
:101BD000F0BDBD076D0840EA0E5041F48011D4F10C
:101BE0000104B4F120060ADAC4F120060200E04044
:101BF00001FA06F3E1401843B24015430EE0342CDD
:101C000013DCC6F1200445EA40056D0820FA06F20F
:101C1000154321FA06F0A1400D43002175F1004261
:101C200050F1000051EB0C01F0BD00205FEA0C0107
:101C3000F0BDCFB992185B41B3FA83F704BFB2FA93
:101C400082F6BF190B3FB7F120062FBF02FA06F349
:101C5000BB40C7F1200622FA06F638BF3343BA402C
:101C60001CB1E419641E33E77F4231F00041B1FA40
:101C700081F404BFB0FA80F6A4190B3CB4F120063D
:101C80002FBF00FA06F1A140C4F1200620FA06F6A3
:101C900038BF3143A0403C1B1AE7AC421ABF05EAEB
:101CA0001357AF4212E050EA41061CBF52EA430606
:101CB000BFE750EA4107304661461CBF41EA055183
:101CC000F0BD52EA430C08BFC143F0BD00204FF401
:101CD000001616EB410F98BF16EB430F08BF16EB2B
:101CE000410F24BFC14305E016EB430F0CBF614613
:101CF0004CEA0551F0BD0000400D491840EA812032
:101D00000CD2490DA1F58061491C40F0004005DB73
:101D1000D1F11F0154BFC840C01770470020704761
:101D2000014648B1B0FA80F18840C91CC1F5846110
:101D3000090501EBD02140057047012000F0B8B83B
:101D400070470000841A71EB030604D26E40001B3A
:101D5000B141121973414FF4001C1CEB410F34BF09
:101D60007CEB430683E00C0DA4EB1356362E00F3F8
:101D70007C80012E45EAC32341DC43EA525312BF63
:101D8000D20292025B08240545EAC12141EA505182
:101D9000D2EBC020994125D407D1B0FA80F610FAD1
:101DA00006F162D00020203608E0B1FA81F6B14099
:101DB000C6F1200220FA02F21143B0404FEAF47457
:101DC000B4EB465434F001064FEA74040AD8D6F551
:101DD0000016760D04F00044F04061FA06F250401F
:101DE000F1404840C00A40EA415021F0004128BF7C
:101DF0005FEA500550F1000044EBD12135E0DB0AE9
:101E000045EAC121C90AB6F120050EDD42EA0242C7
:101E1000120CC5F1200603FA06F6EB4042EA06056D
:101E20006D42984161F100010DE062FA06F5F24061
:101E3000554063FA06FC82EA0C02F3405A406D42B8
:101E4000904161EB030111F4801F05D1641E62050E
:101E500002D06D004041494121F48011430875F1E1
:101E6000004350F1000041EB045170BC70471CEB83
:101E7000410F15D223F0004352EA43060BD04FEA3C
:101E80004C0CBCEB410F04D80C0D661E342EB7DD94
:101E9000EBE7801A994150EA410608BF0021E4E7C8
:101EA00008BF1CEB430F28BF6FF00001DDE7000007
:101EB00080B5AFF30080024A11001820ABBEFBE7EB
:101EC000260002002DE9F8430646DFF894543078E6
:101ED000C10748D5686800F00C00042807D068687E
:101EE00000F00C0008280BD16868C10308D52868E9
:101EF000810338D57068002840F0BE80012067E17A
:101F00007068B0F5803F04D1286840F480302860C4
:101F100014E008B928680AE0B0F5A02F286806D1B7
:101F200040F480202860296841F4803105E020F4E5
:101F300080302860296821F480212960706868B1A8
:101F400000F02EFA04462868810300F1958000F025
:101F500027FA001B6528F6D3032039E100F020FAA8
:101F600004462868810340F1878000F019FA001BBD
:101F70006528F6D3F0E700F013FA001B022840F2C0
:101F8000AA80E9E7306970B10121396000F008FAF0
:101F900004462868810700F1DC8000F001FA001B8C
:101FA0000228F6D9D8E7386000F0FAF90446296823
:101FB000880765D500F0F4F9001B0228F7D9CBE7B4
:101FC000086000F0EDF90446686A810777D500F0F3
:101FD000E7F9001B0228F7D9BEE708B9286A09E02B
:101FE0000528286A06D140F004002862286A40F0DB
:101FF000010005E0400840002862286A20F0040043
:10200000286241F28938F06868B100F0C9F9814668
:10201000286A810700F1AA8000F0C2F9A0EB09004C
:102020004045F5D398E700F0BBF98146286A81075F
:1020300040F19C8000F0B4F9A0EB09004045F5D3D5
:102040008AE700F0ADF9001B022840F2A28083E786
:1020500000F0A6F9001B022840F2B5807CE700F0F2
:10206000B9F804462868810140F1B18000F098F980
:10207000001B0228F6D96FE73078DFF8F07281078D
:102080001BD5686810F00C0F09D0686800F00C00D0
:1020900008287FF477AF6868C1033FF573AF2868FD
:1020A000810703D5306901287FF428AF296870695A
:1020B00021F0F80141EAC0012960317808071DD5F7
:1020C000B069DFF8AC1200283FF47AAF01220A6051
:1020D00000F066F90446686A81077FF54CAFDFF8C7
:1020E00084020268D2084FF47A71B2FBF1F10091D8
:1020F00000BF0098411E00280091F9D130784107B7
:1021000039D5E8690024C10009D4E86940F080505D
:10211000E8610124E86900F0805000900098DFF841
:102120005482D8F80000C1051BD4D8F8000040F450
:102130008070C8F8000000F033F98146D8F800003C
:10214000C1050ED400F02CF9A0EB09006528F5D3E9
:1021500002E72868716920F0F80040EAC1002860B1
:10216000ABE7F06801287FF438AF3FE71CB1E869BE
:1021700020F08050E861F06948B3696801F00C0113
:1021800008293FF4BBAE02287FF469AF00F022F8C3
:102190000446286881013FF554AF306AB0F5803FAE
:1021A00005D16968B06821F40031014369606A684B
:1021B000306A716A22F4741202430A436A60012091
:1021C00000F009F80446286881017FF541AF00203E
:1021D000BDE8F2830020386600F0E2B82DE9F8434C
:1021E000654F05463868894600F00700484502D229
:1021F00000F079F86BD12878594C810705D56268D1
:10220000A86822F0F002024362602978C80756D518
:102210006868012802D121688A0303E00228216846
:1022200002D18A0102D452E08A0750D56168890838
:1022300040EA8100606041F2893800F0B1F806465A
:10224000686801280BD1606800F00C00042836D0C3
:1022500000F0A6F8801B4045F5D303202DE00228AE
:1022600037D1606800F00C00082828D000F098F8FA
:10227000801B4045F5D3F0E72878410705D5626813
:10228000E86822F4E062024362602978080706D514
:102290006168286921F4605141EAC001616000F081
:1022A0002DF8626835492F4BC2F30312895CC84090
:1022B0001860002000F07AF80020BDE8F28338684A
:1022C00000F007008145D7D200F00DF8D4D00120EE
:1022D000F3E7606810F00C0FF1D000F061F8801B9C
:1022E0004045F6D3B9E73968C90849EAC101396000
:1022F000386800F0070048457047000020491A4838
:102300000A6802F00C03082B00D0704710B500BF1C
:102310001EA4C2F38343D203E35C08D50968584383
:102320001EA3C1F340415A5CB0FBF2F010BD184649
:102330001449484310BD0B48006870470948104ACB
:10234000006813681049C3F3022206E005480C4AEE
:10235000006813680C49C3F3C222895CC840704707
:10236000001002400C00002000127A0000004242DF
:10237000800442420070004000200240A433000864
:102380000410024000093D00CC340008020304059B
:10239000060708090A0B0C0D0E0F101001020000B1
:1023A00001484068704700BF0000002038B50D4D5F
:1023B0000D4B2A7804464FF47A711868B1FBF2F29B
:1023C000B0FBF2F000F053F850B9102C08D2002204
:1023D00021464FF0FF3000F023F8AC60002032BD02
:1023E000012032BD000000200C0000200901020085
:1023F00006D52F4A00F00F00104400F8041C704767
:102400002C4B195470472C4B19684FF6FF020002F1
:10241000114000F4E0600843284908431860704701
:1024200038B5254B1C68C4F30223C3F10704052CFF
:1024300028BF04241D1D072D34BF0023DB1E0125EA
:1024400005FA04F4641E2140994005FA03F35B1E6B
:102450001A401143BDE83440C8E7012200F01F01D3
:10246000174BFFE78A40400943F82020704710B51A
:10247000401EB0F1807F01D3012010BD114C60607F
:102480000F214FF0FF30FFF7B1FF0021A1600720BF
:102490002060002010BD04280A4904D1086840F0DB
:1024A0000400086070470A6822F004020A6070475E
:1024B00018ED00E000E400E00CED00E00000FA059B
:1024C00000E100E010E000E000F000B8704700001C
:1024D00038B5040001D1012032BD00F021F808B95F
:1024E00000F022F800F012F800F023F8FFE7416155
:1024F00000F001F832BD2068C16841F40051C160AC
:102500000020686020216970A970704724206870DD
:102510002068C16821F40051C160204600F0A9B9CB
:1025200004F138056878704700212970204600F0D2
:102530007ABA2068016921F49041016120684169FB
:1025400021F02A0170472DE9F843054605F13807C7
:102550000C4678782028164698463DD1002C14BFAA
:10256000002E012039D03878012835D0012139706A
:102570000020786021227A70FFF712FFAE84814636
:10258000EE8403E0296814F8010B4860E88C30B34E
:10259000E88C411EE9844B46A868CDF80080B0F570
:1025A000805F0DD100F025F870B920882968C0F34C
:1025B000080048602869002814BF641CA41CE5E7D3
:1025C00000F017F80028DDD0032006E02020787006
:1025D00000213970002000E00220BDE8F283CDF830
:1025E00000804B460022402100F005F80028EDD085
:1025F000EAE7002280212846ACE0416921F0400151
:102600004161606B704738B5044625682968EA68FF
:102610006B6911F00F0007D188065DD593065BD575
:102620002046BDE83240DBE0D80702D412F4907FA8
:1026300052D0C80705D5D50503D5E06B40F00100A1
:10264000E063480705D5DD0703D5E06B40F00200E5
:10265000E063880705D5DD0703D5E06B40F0040093
:10266000E063080705D5DB0703D5E06B40F0080001
:10267000E063E06B00286CD0880604D5910644BF67
:10268000204600F0ADF820684069E16B0A0701D4EC
:1026900040061BD5204600F08FF8206841694A06A5
:1026A0000FD5FFF7AAFF60B10FF229114163606BEC
:1026B00000F0F6F900284CD0606B416BBDE8344067
:1026C00008472046BDE8324000F072BA204600F0CC
:1026D0006FFA0020E06331BD08062AD5130628D51D
:1026E00094F83900212834D1A068B0F5805F206AC1
:1026F0000BD10188C1F30801696020690028206AB4
:102700000CBF811C411C216203E0411C2162007846
:102710006860E08C401EE08480B2D0B92068C16857
:1027200021F08001C1602068C16841F04001C160B2
:1027300031BD48060DD551060BD5E86820F04000A4
:10274000E860202184F839102046BDE8324000F0CE
:1027500030BA31BD2DE9F041069C05460E46904643
:102760001F46286801683140B1420CBF012000209B
:10277000404517D114F1010FF3D024B1FFF710FE3B
:10278000C01B8442EDD22868C16821F4D07100F0EA
:102790000CF805F138002021417081700021017092
:1027A000032000E00020BDE8F081C1602868416995
:1027B00049084900416170470168CA6822F4907273
:1027C000CA6001684A69520852004A61202180F8B3
:1027D0003A107047406A0021C185C18400F0E8B911
:1027E00080B590F83A10222941D18168B1F5805F17
:1027F00012D101690368826A0029596805D1C1F3C1
:1028000008011180826A911C04E001F0FF0111802F
:10281000826A511C81620FE001690029816A04D13A
:102820004A1C826203685A6805E04A1C8262036897
:102830005A6802F07F020A70C18D491EC18589B2B3
:1028400099B90168CA6822F02002CA600168CA68A2
:1028500022F48072CA6001684A69520852004A61D3
:10286000202180F83A1000F0A5F9002002BD0220D6
:1028700002BD2DE9F0470446642522681169E0682D
:1028800021F44051014311611926D3683249A068EF
:102890000B402169034360690B430343D3605169D3
:1028A000A06921F4407101432C48516182420ED14C
:1028B000FFF74CFD0746FFF749FD8046FFF746FD51
:1028C0008146FFF743FD8246FFF740FD0DE0FFF72D
:1028D00035FD0746FFF732FD8046FFF72FFD8146A5
:1028E000FFF72CFD8246FFF729FD616889007743D9
:1028F000B7FBF1F36422B3FBF2F206FB08F3B3FB80
:10290000F1F706FB09F3B3FBF1FCAE46BCFBFEFEA0
:1029100005FB1E773F0132376423B7FBF3F303F067
:10292000F00303EB021306FB0AF74643B7FBF1F291
:10293000B6FBF1F06421B0FBF1F105FB11252D018F
:1029400032356420B5FBF0F0216800F00F00C318A9
:102950008B60BDE8F0870000F3E9FFFF003801401D
:1029600080B54948016841F001010160026802F048
:10297000010200920099426842F080524260406831
:1029800000F08050009000980320FFF73CFD0022EB
:1029900000216FF00B00FFF743FD002200216FF0D4
:1029A0000A00FFF73DFD002200216FF00900FFF74C
:1029B00037FD002200216FF00400FFF731FD0022F7
:1029C00000216FF00300FFF72BFD002200216FF0C4
:1029D0000100FFF725FD002200214FF0FF30FFF737
:1029E0001FFD2A48016821F0E06141F0806101602B
:1029F00001BD00682649884200D0704780B525484F
:102A0000026842F0100202600022006800F010002C
:102A10000090002100983620FFF702FDBDE802403B
:102A20003620FFF71ABD00681B49884200D0704766
:102A300018B51548194C85B0026842F4804202600E
:102A40004FF40071006800F480400090022200986A
:102A50000191029203210491204601A900F0ACF8F3
:102A600000214FF4806202910391019201A9204656
:102A700000F0A2F8002200212520FFF7D1FC25203C
:102A8000FFF7EBFC06B010BD181002400400014037
:102A9000001000401C1002400038014000080140B6
:102AA000F8B590F821200024022A00F1340103D067
:102AB0000420486001245FE00268DFF8C460136806
:102AC00023F00E0313604FF48077026815686D08D9
:102AD0006D0015604FF480320368B3424FF48055A7
:102AE00019D9DFF89860B34208BF012210D0DFF88F
:102AF0009460B34208BF10220AD0DFF88C60B34262
:102B000008BF3A4604D0DFF88470BB4208BF2A46AB
:102B1000DFF87C3027E0DFF87CC063451CD0DFF8AD
:102B200078E073451AD0DFF874C0634518D0DFF839
:102B30007070BB420EBF2A46DFF86850AB4210D01F
:102B4000DFF86470BB4208BF4FF4801209D0B34273
:102B500007D14FF0807204E0012202E0102200E071
:102B60003A46DFF848301A60012280F8212080F8C8
:102B70002040096801B188472046F2BD08040240A0
:102B8000800002401C040240300402404404024021
:102B900004040240080002401C00024030000240D1
:102BA00044000240580002406C0002400400024011
:102BB00070477047704700002DE9F8430246002037
:102BC0000025694BDFF8A49101270E68AF403E4015
:102BD000BE4240F0B6804C686CB3012C20D0022C71
:102BE00023D0032C32D0112C1CD0122C20D0DFF893
:102BF00080E174451CBFDFF87CE174451BD0DFF831
:102C000078E174451CBFDFF874E1744513D0DFF838
:102C100070E174451CBFDFF86CE174450BD016E021
:102C2000C86814E0C868001D11E0C86808300EE0EC
:102C3000C8680C300BE0886808B9042007E0012858
:102C400019BF082057610820176100E00020B6F581
:102C5000807F03D294464FEA850E05E0A5F1080473
:102C600002F1040C4FEA840E0F27DCF8008007FA0B
:102C70000EF428EA040400FA0EFE4EEA0404CCF82E
:102C800000404C68E4005CD5D9F80040DFF8F8E07B
:102C900044F00104C9F800404FEA950CD9F800400F
:102CA00004F0010400944FEA8508009C5EF82C4073
:102CB00008F00C0807FA08F724EA0707334CA24289
:102CC00008BF002418D0324CA24208BF012413D000
:102CD000304CA24208BF02240ED02F4CA24208BFA3
:102CE000032409D02D4CA24208BF042404D02C4C4C
:102CF000A2420CBF0524062404FA08F427434EF828
:102D00002C70F7434C68E4031C684CBF34433C40D0
:102D10001C604C68A4035C684CBF34433C405C605E
:102D20004C68E4029C684CBF34433C409C604C6857
:102D3000A40203D5DF683E43DE6002E0DE68374070
:102D4000DF606D1C0F2D7FF63FAFBDE8F18302B948
:102D5000090401617047134A136803421CBF1060E5
:102D600000F05AB8704700000004014018100240FB
:102D700000001110000012100000211000002210AD
:102D8000000031100000321008000140000801402E
:102D9000000C0140001001400014014000180140E7
:102DA000001C0140140401400068A449884200D07E
:102DB000704738B5A24C607801281FD12078A14D0A
:102DC000401CC1B2052920700AD100BFA4A000F0A8
:102DD0005FF92846BDE8384000221C21FFF7B7BF45
:102DE000C0B20A280AD100BF9FA000F051F9012209
:102DF0001C212846FFF7ABFF0020207031BD1CB519
:102E00008DF8000004460223012269468E48FFF730
:102E10009AFB204616BD000070B50546884C894EC9
:102E200000206070002200F031F8012D06D101224F
:102E3000042100F02CF800BF8DA016E0022D05D172
:102E40000122082100F023F88BA00EE0042D05D10B
:102E50000122102100F01BF889A006E0082D08D1FE
:102E600001220C2100F013F887A0BDE8704000F0AB
:102E70000FB9102D09D1012200F008F87AA000F056
:102E800007F9002001212070617070BD1C213046BF
:102E9000FFF75DBF1CB500F00FF900F032F800F04D
:102EA00068F86948694901604FF4E13200230C2158
:102EB00042608360C360036141618361C361FFF766
:102EC00007FB00B1FEE7624C5C48206048F6A04179
:102ED0006160C7200022E0608021A260A1612046DD
:102EE00000F0FCF800B1FEE70021009101912046BE
:102EF000694600F005FA00B1FEE7204600F0FBF855
:102F0000FEE700B54FF4803100228FB006910792A2
:102F10000D9101200590099002224FF4E0110C92CE
:102F20000E9105A8FEF7CEFF00B1FEE70221019148
:102F30000F204FF4806100900022039102920492CE
:102F400002216846FFF74AF900B1FEE7FFF7F3F9FF
:102F50004FF47A71B0FBF1F0FFF789FA0420FFF724
:102F60009AFA002200214FF0FF30FFF759FA0FB014
:102F700000BD18B53748334C85B0016841F04001B9
:102F80000160026802F0400204920499026842F073
:102F900010020260036803F01003049304990268AE
:102FA00042F0040202600022006800F00400049075
:102FB0003C21049B2046FFF7CAFE01213C220191DF
:102FC0000092022100220391029269462046FFF7F7
:102FD000F3FD1F20204900900191002202926946D2
:102FE0001E48FFF7E9FD002200210620FFF718FA2E
:102FF0000620FFF732FA002200210720FFF710FA1F
:103000000720FFF72AFA002200210820FFF708FA1C
:103010000820FFF722FA002200210920FFF700FA1A
:103020000920FFF71AFA002200210A20FFF7F8F919
:103030000A20FFF712FA06B010BD00000010004091
:10304000AC01002000180140680100200038014058
:10305000280100201810024000001110001001404B
:103060003030300D0A0000003131310D0A0000000F
:103070003130300D0A0000003031300D0A00000000
:103080003030310D0A0000003131300D0A000000EF
:103090000EB4C0B5024603A800210190009101AB17
:1030A0000121044878440C30FDF742F806BC5DF875
:1030B00010FB00BFDB03000080B50748016841F04A
:1030C000100101600320FFF79EF90020FFF76EF961
:1030D000FFF746FC002002BD0020024038B5040086
:1030E00001D1012032BD00F01FF818B900F018F826
:1030F000FFF77FFC0AE00068C16841F00101C16090
:10310000026842F0010202600020704702206870ED
:10311000211D206800F0B0F801206870002032BD49
:10312000002129702046704704F13C0568787047FB
:1031300010B50446206801698A0715D5C1688A0759
:1031400012D56FF00201016101222277806910F02F
:10315000030F204602D000F0F8F803E000F0F6F884
:1031600000F087F800202077206801694A0715D50C
:10317000C1684A0712D56FF004010161022222776B
:10318000806910F4407F204602D000F0DEF803E0B2
:1031900000F0DCF800F06DF800202077206801696D
:1031A0000A0715D5C1680A0712D56FF00801016139
:1031B00004222277C06910F0030F204602D000F0ED
:1031C000C4F803E000F0C2F800F053F800202077C4
:1031D00020680169CA0615D5C168CA0612D56FF004
:1031E0001001016108222277C06910F4407F204657
:1031F00002D000F0AAF803E000F0A8F800F039F8D7
:103200000020207720680169CA0708D5C168CA076D
:1032100005D56FF0010101612046FFF7C5FD20686B
:1032200001690A0608D5C1680A0605D56FF0800154
:103230000161204600F08BF8206801694A0608D534
:10324000C1684A0605D56FF040010161204600F0D3
:103250007FF8206801698A060AD5C1688A0607D501
:103260006FF0200101612046BDE8104000F071B808
:1032700010BD204600F06EB8F0B5DFF870C01C4FEE
:1032800003681C4C1C4D1D4E604518BFB84208D049
:10329000B0F1804F18BFB04203D0A84218BFA0427F
:1032A0000DD14A6823F070031343604518BFB8423C
:1032B00007D0B0F1804F1CBFB042A84201D0A0425D
:1032C00003D1CA6823F4407313434A6923F080038F
:1032D0001343036060458B68C3620A68826212BF51
:1032E000B8420969016301224261F0BD002C01402E
:1032F00000340140000C0040000800400004004081
:1033000030B500F13C031A78012A01D1022030BD0A
:1033100001221A7002245C700268546824F0700460
:103320005460046865680A681543656002689468BB
:1033300024F08004946002689468486804439460B0
:10334000012159700020187030BD704770477047D8
:10335000704770477047000010B50E4A0E4910685C
:1033600040F00100106053680C480B405360146833
:1033700004401460116821F4802111604FF41F0192
:10338000506820F4FE00506091604FF00060044AE5
:10339000106010BD001002400000FFF8FFFFF6FEB5
:1033A00008ED00E00000000000000000010203043E
:1033B000060708097047FEE7FEE7FEE7FEE77047ED
:1033C0007047704780B500F01DF8BDE80140FFF779
:1033D0007BB80120FFF7BFBC0220FFF7BCBC042074
:1033E000FFF7B9BC0820FFF7B6BC1020FFF7B3BC4D
:1033F0000248FFF708B90248FFF79ABE68010020AB
:103400002801002002494A68087882184A607047FB
:103410000000002010B5074979441831064C7C445F
:10342000163404E00A68081D114488470146A14289
:10343000F8D110BD080000002400000077DDFFFF78
:10344000D8000000D8000020000000005FDCFFFF73
:103450005E010000A00000000000002000F00DF858
:10346000002801D0FFF7D6FFAFF300800020AFF3B4
:103470000080FFF70FFD00F002F80120704700F018
:1034800001B8000007463846FEF712FDFBE738B5E5
:1034900004460D46284600F005F8A84218BF00244F
:1034A000204632BD0149FFF7AABC00BF90000020B2
:1034B000014880470148004759330008C1340008DB
:1034C000AFF30080AFF30080FFF7C8FF00000000FB
:1034D0000102030400002E004300FFF7FEBFFFF7C8
:1034E000FEBFFFF7FEBFFFF7FEBFFFF7FEBFFFF710
:1034F000FEBFFFF7FEBFFFF7FEBFFFF7FEBFFFF700
:10350000FEBFFFF7FEBFFFF7FEBFFFF7FEBFFFF7EF
:10351000FEBFFFF7FEBFFFF7FEBFFFF7FEBFFFF7DF
:10352000FEBFFFF7FEBFFFF7FEBFFFF7FEBFFFF7CF
:10353000FEBFFFF7FEBFFFF7FEBFFFF7FEBFFFF7BF
:10354000FEBFFFF7FEBFFFF7FEBFFFF7FEBFFFF7AF
:10355000FEBFFFF7FEBFFFF7FEBFFFF7FEBFFFF79F
:10356000FEBFFFF7FEBFFFF7FEBFFFF7FEBFFFF78F
:10357000FEBFFFF7FEBFFFF7FEBFFFF7FEBFFFF77F
:10358000FEBFFFF7FEBFFFF7FEBFFFF7FEBFFFF76F
:10359000FEBFFFF7FEBFFFF7FEBFFFF7FEBFFFF75F
:1035A000FEBFFFF7FEBFFFF7FEBFFFF7FEBF430101
:1035B0000001221008F00507A24A04D434000804D0
:1035C00052FF01F200D61410010000D80C214C115A
:1035D00048F3162000012002751200082C436312E4
:1035E0003C2101100302040101D8442002280100FB
:0E35F000200852D850610812D408F212C064AC
:04000005080034C1FA
:00000001FF
