:020000040800F2
:1000000050040020CD120008151200081712000835
:10001000191200081B1200081D1200080000000041
:100020000000000000000000000000001F12000897
:100030002112000800000000231200082512000809
:10004000F1120008F5120008F9120008FD1200086C
:100050000113000805130008091300080D13000818
:100060001113000815130008191300081D130008C8
:100070002113000825130008291300082D13000878
:100080003113000835130008391300083D13000828
:100090004113000845130008491300084D130008D8
:1000A0005113000855130008591300085D13000888
:1000B0006113000865130008691300086D13000838
:1000C0007113000875130008791300087D130008E8
:1000D00081130008331200088513000889130008F3
:1000E0008D13000891130008951300089913000858
:1000F0009D130008A1130008A5130008A913000808
:10010000AD130008B1130008B5130008B9130008B7
:10011000BD130008C1130008C5130008C913000867
:10012000CD130008D1130008D5130008D913000817
:100130002DE9F8430646DFF894543078C10748D5D6
:10014000686800F00C00042807D0686800F00C0014
:1001500008280BD16868C10308D52868810338D501
:100160007068002840F0BE80012067E17068B0F53B
:10017000803F04D1286840F48030286014E008B93A
:1001800028680AE0B0F5A02F286806D140F4802046
:100190002860296841F4803105E020F4803028602F
:1001A000296821F480212960706868B100F02EFA76
:1001B00004462868810300F1958000F027FA001BAF
:1001C0006528F6D3032039E100F020FA04462868B8
:1001D000810340F1878000F019FA001B6528F6D3EF
:1001E000F0E700F013FA001B022840F2AA80E9E7CA
:1001F000306970B10121396000F008FA04462868BE
:10020000810700F1DC8000F001FA001B0228F6D91A
:10021000D8E7386000F0FAF904462968880765D500
:1002200000F0F4F9001B0228F7D9CBE7086000F0D2
:10023000EDF90446686A810777D500F0E7F9001BFD
:100240000228F7D9BEE708B9286A09E00528286A14
:1002500006D140F004002862286A40F0010005E061
:10026000400840002862286A20F00400286241F219
:100270008938F06868B100F0C9F98146286A8107B9
:1002800000F1AA8000F0C2F9A0EB09004045F5D3C7
:1002900098E700F0BBF98146286A810740F19C800D
:1002A00000F0B4F9A0EB09004045F5D38AE700F06F
:1002B000ADF9001B022840F2A28083E700F0A6F906
:1002C000001B022840F2B5807CE700F0B9F8044634
:1002D0002868810140F1B18000F098F9001B0228E4
:1002E000F6D96FE73078DFF8F07281071BD56868C0
:1002F00010F00C0F09D0686800F00C0008287FF49B
:1003000077AF6868C1033FF573AF2868810703D5ED
:10031000306901287FF428AF2968706921F0F8015D
:1003200041EAC0012960317808071DD5B069DFF8BE
:10033000AC1200283FF47AAF01220A6000F066F99F
:100340000446686A81077FF54CAFDFF884020268D3
:10035000D2084FF47A71B2FBF1F1009100BF00981E
:10036000411E00280091F9D13078410739D5E8695C
:100370000024C10009D4E86940F08050E8610124FC
:10038000E86900F0805000900098DFF85482D8F8B7
:100390000000C1051BD4D8F8000040F48070C8F8F4
:1003A000000000F033F98146D8F80000C1050ED4F2
:1003B00000F02CF9A0EB09006528F5D302E72868C6
:1003C000716920F0F80040EAC1002860ABE7F068EE
:1003D00001287FF438AF3FE71CB1E86920F0805076
:1003E000E861F06948B3696801F00C0108293FF43D
:1003F000BBAE02287FF469AF00F022F804462868FB
:1004000081013FF554AF306AB0F5803F05D169688E
:10041000B06821F40031014369606A68306A716A2A
:1004200022F4741202430A436A60012000F009F8C2
:100430000446286881017FF541AF0020BDE8F283C2
:100440000020386600F0E2B82DE9F843654F054614
:100450003868894600F00700484502D200F079F874
:100460006BD12878594C810705D56268A86822F0BD
:10047000F002024362602978C80756D568680128EF
:1004800002D121688A0303E00228216802D18A018F
:1004900002D452E08A0750D56168890840EA810099
:1004A000606041F2893800F0B1F8064668680128BA
:1004B0000BD1606800F00C00042836D000F0A6F8DC
:1004C000801B4045F5D303202DE0022837D160681A
:1004D00000F00C00082828D000F098F8801B404558
:1004E000F5D3F0E72878410705D56268E86822F47B
:1004F000E062024362602978080706D561682869CE
:1005000021F4605141EAC001616000F02DF8626899
:1005100035492F4BC2F30312895CC8401860002094
:1005200000F07AF80020BDE8F283386800F0070098
:100530008145D7D200F00DF8D4D00120F3E76068F0
:1005400010F00C0FF1D000F061F8801B4045F6D39D
:10055000B9E73968C90849EAC1013960386800F06B
:10056000070048457047000020491A480A6802F011
:100570000C03082B00D0704710B500BF1EA4C2F3B7
:100580008343D203E35C08D5096858431EA3C1F333
:1005900040415A5CB0FBF2F010BD18461449484384
:1005A00010BD0B48006870470948104A006813687E
:1005B0001049C3F3022206E005480C4A006813689C
:1005C0000C49C3F3C222895CC84070470010024046
:1005D0000C00002000127A000000424280044242D7
:1005E0000070004000200240CC11000804100240BE
:1005F00000093D00E8120008020304050607080987
:100600000A0B0C0D0E0F101001020000014840688B
:10061000704700BF0000002038B50D4D0D4B2A7803
:1006200004464FF47A711868B1FBF2F2B0FBF2F0B5
:1006300000F053F850B9102C08D2002221464FF098
:10064000FF3000F023F8AC60002032BD012032BD45
:10065000000000200C0000200901020006D52F4AEE
:1006600000F00F00104400F8041C70472C4B195484
:1006700070472C4B19684FF6FF020002114000F43E
:10068000E0600843284908431860704738B5254B97
:100690001C68C4F30223C3F10704052C28BF0424FB
:1006A0001D1D072D34BF0023DB1E012505FA04F4B0
:1006B000641E2140994005FA03F35B1E1A40114362
:1006C000BDE83440C8E7012200F01F01174BFFE7E7
:1006D0008A40400943F82020704710B5401EB0F111
:1006E000807F01D3012010BD114C60600F214FF0BD
:1006F000FF30FFF7B1FF0021A1600720206000203C
:1007000010BD04280A4904D1086840F004000860BC
:1007100070470A6822F004020A60704718ED00E092
:1007200000E400E00CED00E00000FA0500E100E06C
:1007300010E000E000F000B87047000038B5040099
:1007400001D1012032BD00F021F808B900F022F8F3
:1007500000F012F800F023F8FFE7416100F001F823
:1007600032BD2068C16841F40051C160002068605A
:1007700020216970A9707047242068702068C168C2
:1007800021F40051C160204600F0A9B904F13805F8
:100790006878704700212970204600F060BA206810
:1007A000016921F4904101612068416921F02A0129
:1007B00070472DE9F843054605F138070C4678786F
:1007C0002028164698463DD1002C14BF002E01204B
:1007D00039D03878012835D001213970002078606F
:1007E00021227A70FFF712FFAE848146EE8403E087
:1007F000296814F8010B4860E88C30B3E88C411E7E
:10080000E9844B46A868CDF80080B0F5805F0DD133
:1008100000F025F870B920882968C0F30800486006
:100820002869002814BF641CA41CE5E700F017F831
:100830000028DDD0032006E02020787000213970E8
:10084000002000E00220BDE8F283CDF800804B4696
:100850000022402100F005F80028EDD0EAE7002250
:1008600080212846ACE0416921F040014161606B84
:10087000704738B5044625682968EA686B6911F045
:100880000F0007D188065DD593065BD52046BDE8ED
:100890003240DBE0D80702D412F4907F52D0C80770
:1008A00005D5D50503D5E06B40F00100E0634807AE
:1008B00005D5DD0703D5E06B40F00200E063880753
:1008C00005D5DD0703D5E06B40F00400E0630807C1
:1008D00005D5DB0703D5E06B40F00800E063E06B73
:1008E00000286CD0880604D5910644BF204600F04D
:1008F000ADF820684069E16B0A0701D440061BD5BA
:10090000204600F08FF8206841694A060FD5FFF7AE
:10091000AAFF60B10FF229114163606B00F0D8F9B2
:1009200000284CD0606B416BBDE83440084720463E
:10093000BDE8324000F054BA204600F051FA0020E1
:10094000E06331BD08062AD5130628D594F839008E
:10095000212834D1A068B0F5805F206A0BD10188CE
:10096000C1F30801696020690028206A0CBF811C5E
:10097000411C216203E0411C216200786860E08C28
:10098000401EE08480B2D0B92068C16821F08001A7
:10099000C1602068C16841F04001C16031BD4806B6
:1009A0000DD551060BD5E86820F04000E860202105
:1009B00084F839102046BDE8324000F012BA31BD4B
:1009C0002DE9F041069C05460E4690461F462868D4
:1009D00001683140B1420CBF01200020404517D1D1
:1009E00014F1010FF3D024B1FFF710FEC01B8442B5
:1009F000EDD22868C16821F4D07100F00CF805F13F
:100A0000380020214170817000210170032000E036
:100A10000020BDE8F081C1602868416949084900AB
:100A2000416170470168CA6822F49072CA60016827
:100A30004A69520852004A61202180F83A107047F2
:100A4000406A0021C185C18400F0CAB980B590F820
:100A50003A10222941D18168B1F5805F12D1016934
:100A60000368826A0029596805D1C1F30801118021
:100A7000826A911C04E001F0FF011180826A511C1E
:100A800081620FE001690029816A04D14A1C8262F7
:100A900003685A6805E04A1C826203685A6802F0DB
:100AA0007F020A70C18D491EC18589B299B901685A
:100AB000CA6822F02002CA600168CA6822F4807203
:100AC000CA6001684A69520852004A61202180F8D0
:100AD0003A1000F087F9002002BD022002BD2DE986
:100AE000F0470446642522681169E06821F440510A
:100AF000014311611926D3683249A0680B4021696E
:100B0000034360690B430343D3605169A06921F437
:100B1000407101432C48516182420ED1FFF74CFDD8
:100B20000746FFF749FD8046FFF746FD8146FFF780
:100B300043FD8246FFF740FD0DE0FFF735FD074618
:100B4000FFF732FD8046FFF72FFD8146FFF72CFDB2
:100B50008246FFF729FD616889007743B7FBF1F30F
:100B60006422B3FBF2F206FB08F3B3FBF1F706FBDA
:100B700009F3B3FBF1FCAE46BCFBFEFE05FB1E77A2
:100B80003F0132376423B7FBF3F303F0F00303EBC9
:100B9000021306FB0AF74643B7FBF1F2B6FBF1F08E
:100BA0006421B0FBF1F105FB11252D0132356420E4
:100BB000B5FBF0F0216800F00F00C3188B60BDE8B2
:100BC000F0870000F3E9FFFF0038014080B53C48A2
:100BD000016841F001010160026802F00102009227
:100BE0000099426842F080524260406800F08050B4
:100BF000009000980320FFF73CFD002200216FF0D9
:100C00000B00FFF743FD002200216FF00A00FFF701
:100C10003DFD002200216FF00900FFF737FD0022A3
:100C200000216FF00400FFF731FD002200216FF07A
:100C30000300FFF72BFD002200216FF00100FFF7FA
:100C400025FD002200214FF0FF30FFF71FFD1D485A
:100C5000016821F0E06141F08061016001BD006840
:100C60001949884200D0704718B51548174C85B00F
:100C7000026842F4804202604FF40071006800F4A0
:100C80008040009002220098019102920321049179
:100C9000204601A900F0A8F800214FF480620291DB
:100CA0000391019201A9204600F09EF80022002144
:100CB0002520FFF7EBFC2520FFF705FD06B010BD52
:100CC00018100240040001400038014000080140B3
:100CD000F8B590F821200024022A00F1340103D055
:100CE0000420486001245FE00268DFF8C4601368F4
:100CF00023F00E0313604FF48077026815686D08C7
:100D00006D0015604FF480320368B3424FF4805594
:100D100019D9DFF89860B34208BF012210D0DFF87C
:100D20009460B34208BF10220AD0DFF88C60B3424F
:100D300008BF3A4604D0DFF88470BB4208BF2A4699
:100D4000DFF87C3027E0DFF87CC063451CD0DFF89B
:100D500078E073451AD0DFF874C0634518D0DFF827
:100D60007070BB420EBF2A46DFF86850AB4210D00D
:100D7000DFF86470BB4208BF4FF4801209D0B34261
:100D800007D14FF0807204E0012202E0102200E05F
:100D90003A46DFF848301A60012280F8212080F8B6
:100DA0002040096801B188472046F2BD080402408E
:100DB000800002401C04024030040240440402400F
:100DC00004040240080002401C00024030000240BF
:100DD00044000240580002406C00024004000240FF
:100DE00070477047704700002DE9F8430246002025
:100DF0000025684BDFF8A09101270E68AF403E4008
:100E0000BE4240F0B6804C686CB3012C20D0022C5E
:100E100023D0032C32D0112C1CD0122C20D0DFF880
:100E20007CE174451CBFDFF878E174451BD0DFF826
:100E300074E174451CBFDFF870E1744513D0DFF82E
:100E40006CE174451CBFDFF868E174450BD016E017
:100E5000C86814E0C868001D11E0C86808300EE0DA
:100E6000C8680C300BE0886808B9042007E0012846
:100E700019BF082057610820176100E00020B6F56F
:100E8000807F03D294464FEA850E05E0A5F1080461
:100E900002F1040C4FEA840E0F27DCF8008007FAF9
:100EA0000EF428EA040400FA0EFE4EEA0404CCF81C
:100EB00000404C68E4005CD5D9F80040DFF8F4E06D
:100EC00044F00104C9F800404FEA950CD9F80040FD
:100ED00004F0010400944FEA8508009C5EF82C4061
:100EE00008F00C0807FA08F724EA0707324CA24278
:100EF00008BF002418D0314CA24208BF012413D0EF
:100F00002F4CA24208BF02240ED02E4CA24208BF92
:100F1000032409D02C4CA24208BF042404D02B4C3B
:100F2000A2420CBF0524062404FA08F427434EF815
:100F30002C70F7434C68E4031C684CBF34433C40BE
:100F40001C604C68A4035C684CBF34433C405C604C
:100F50004C68E4029C684CBF34433C409C604C6845
:100F6000A40203D5DF683E43DE6002E0DE6837405E
:100F7000DF606D1C0F2D7FF63FAFBDE8F183806809
:100F8000084018BF0120C0B2704702B909040161CE
:100F900070470000000401401810024000001110CA
:100FA000000012100000211000002210000031107B
:100FB000000032100800014000080140000C014010
:100FC000001001400014014000180140001C0140C5
:100FD00030B585B000F0AEF800F074F83448354C08
:100FE0000168354D41F040010160026802F04002A5
:100FF00004920499026842F010020260036803F050
:10100000100304930499026842F004020260002273
:10101000006800F0040004901C2104982046FFF7AB
:10102000B4FF1C21009101220192002102910222B1
:10103000039269462046FFF7D7FE1F20002100904B
:101040000191029169461D4C2046FFF7CDFE1C48D8
:1010500028604FF4E1310C20002268616960AA60C9
:10106000EA602A61AA61EA612846FFF767FB00B1DE
:10107000FEE74C228DF802208DF803204820452100
:101080004F228DF800008DF801108DF80420012109
:101090002046FFF774FF0028F9D102230522694694
:1010A0002846FFF786FB322000F056F8EFE70000F5
:1010B00018100240001801401000002000100140EC
:1010C0000038014000B54FF4803100228FB0069106
:1010D00007920D9101200590099002224FF4E01132
:1010E0000C920E9105A8FFF723F800B1FEE702214C
:1010F00001910F204FF48061009000220391029231
:10110000049202216846FFF79FF900B1FEE7FFF75E
:1011100048FA4FF47A71B0FBF1F0FFF7DEFA0420E1
:10112000FFF7EFFA002200214FF0FF30FFF7AEFA91
:101130000FB000BD80B50748016841F010010160A3
:101140000320FFF796FA0020FFF766FAFFF73EFD4F
:10115000002002BD0020024038B50446FFF756FAD1
:1011600014F1010F054602D0044908780419FFF76D
:101170004DFA401BA042FAD331BD00BF0000002051
:1011800010B50E4A0E49106840F001001060536817
:101190000C480B405360146804401460116821F43B
:1011A000802111604FF41F01506820F4FE00506050
:1011B00091604FF00060044A106010BD00100240C2
:1011C0000000FFF8FFFFF6FE08ED00E00000000061
:1011D00000000000010203040607080930B5016899
:1011E00084684218416802EB5103C9070BD54C448F
:1011F00009E012F9011B12F8015B002904F8015BF8
:1012000005D5491CF9D19A42F3D10C3030BD491EA5
:10121000F1D5F8E77047FEE7FEE7FEE7FEE7704727
:101220007047704780B500F009F8BDE80140FFF74E
:1012300081BA0148FFF71DBB1000002002494A682F
:10124000087882184A6070470000002010B50749EE
:1012500079441831064C7C44163404E00A68081DB1
:10126000114488470146A142F8D110BD0800000092
:101270001400000069FFFFFF640100001C00000073
:101280000000002000F00DF8002801D0FFF7DEFF7D
:10129000AFF300800020AFF30080FFF799FE00F06D
:1012A00002F80120704700F001B8000007463846F8
:1012B00000F002F8FBE7000080B5AFF30080024ABF
:1012C00011001820ABBEFBE7260002000148804752
:1012D0000148004781110008DD120008AFF30080CB
:1012E000AFF30080FFF7CEFF00000000010203040F
:1012F000FFF7FEBFFFF7FEBFFFF7FEBFFFF7FEBF22
:10130000FFF7FEBFFFF7FEBFFFF7FEBFFFF7FEBF11
:10131000FFF7FEBFFFF7FEBFFFF7FEBFFFF7FEBF01
:10132000FFF7FEBFFFF7FEBFFFF7FEBFFFF7FEBFF1
:10133000FFF7FEBFFFF7FEBFFFF7FEBFFFF7FEBFE1
:10134000FFF7FEBFFFF7FEBFFFF7FEBFFFF7FEBFD1
:10135000FFF7FEBFFFF7FEBFFFF7FEBFFFF7FEBFC1
:10136000FFF7FEBFFFF7FEBFFFF7FEBFFFF7FEBFB1
:10137000FFF7FEBFFFF7FEBFFFF7FEBFFFF7FEBFA1
:10138000FFF7FEBFFFF7FEBFFFF7FEBFFFF7FEBF91
:10139000FFF7FEBFFFF7FEBFFFF7FEBFFFF7FEBF81
:1013A000FFF7FEBFFFF7FEBFFFF7FEBFFFF7FEBF71
:1013B000FFF7FEBFFFF7FEBFFFF7FEBFFFF7FEBF61
:1013C000FFF7FEBFFFF7FEBFFFF7FEBFFFF7FEBF51
:1013D000FFF7FEBFFFF7FEBFFFF7FEBF0001F900FA
:0A13E0000010FC0002A24A04C00045
:04000005080012DD00
:00000001FF
