:020000040800F2
:100000008004002039140008351300083713000855
:10001000391300083B1300083D13000800000000DE
:100020000000000000000000000000003F13000876
:1000300041130008000000004313000845130008A6
:1000400065140008691400086D1400087114000894
:1000500075140008791400087D1400085313000873
:100060005913000881140008851400088914000839
:100070008D140008911400089514000899140008C4
:100080009D140008A1140008A5140008A914000874
:10009000AD140008B1140008B5140008B914000824
:1000A000BD140008C1140008C5140008C9140008D4
:1000B000CD140008D1140008D5140008D914000884
:1000C000DD140008E1140008E5140008E914000834
:1000D000ED140008F1140008F5140008F9140008E4
:1000E000FD14000801150008051500080915000891
:1000F0000D15000811150008151500081915000840
:100100001D150008211500082515000829150008EF
:100110002D150008311500085F130008351500087B
:10012000391500083D15000841150008451500085F
:100130002DE9F8430646DFF870543078C10748D5FA
:10014000686800F00C00042807D0686800F00C0014
:1001500008280BD16868C10308D52868810338D501
:100160007068002840F0BE80012067E17068B0F53B
:10017000803F04D1286840F48030286014E008B93A
:1001800028680AE0B0F5A02F286806D140F4802046
:100190002860296841F4803105E020F4803028602F
:1001A000296821F480212960706868B100F036FA6E
:1001B00004462868810300F1958000F02FFA001BA7
:1001C0006528F6D3032039E100F028FA04462868B0
:1001D000810340F1878000F021FA001B6528F6D3E7
:1001E000F0E700F01BFA001B022840F2AA80E9E7C2
:1001F000306970B10121396000F010FA04462868B6
:10020000810700F1DC8000F009FA001B0228F6D912
:10021000D8E7386000F002FA04462968880765D5F7
:1002200000F0FCF9001B0228F7D9CBE7086000F0CA
:10023000F5F90446686A810777D500F0EFF9001BED
:100240000228F7D9BEE708B9286A09E00528286A14
:1002500006D140F004002862286A40F0010005E061
:10026000400840002862286A20F00400286241F219
:100270008938F06868B100F0D1F98146286A8107B1
:1002800000F1AA8000F0CAF9A0EB09004045F5D3BF
:1002900098E700F0C3F98146286A810740F19C8005
:1002A00000F0BCF9A0EB09004045F5D38AE700F067
:1002B000B5F9001B022840F2A28083E700F0AEF9F6
:1002C000001B022840F2B5807CE700F0B9F8044634
:1002D0002868810140F1B18000F0A0F9001B0228DC
:1002E000F6D96FE73078DFF8CC7281071BD56868E4
:1002F00010F00C0F09D0686800F00C0008287FF49B
:1003000077AF6868C1033FF573AF2868810703D5ED
:10031000306901287FF428AF2968706921F0F8015D
:1003200041EAC0012960317808071DD5B069DFF8BE
:10033000881200283FF47AAF01220A6000F06EF9BB
:100340000446686A81077FF54CAFDFF860020268F7
:10035000D2084FF47A71B2FBF1F1009100BF00981E
:10036000411E00280091F9D13078410739D5E8695C
:100370000024C10009D4E86940F08050E8610124FC
:10038000E86900F0805000900098DFF83082D8F8DB
:100390000000C1051BD4D8F8000040F48070C8F8F4
:1003A000000000F03BF98146D8F80000C1050ED4EA
:1003B00000F034F9A0EB09006528F5D302E72868BE
:1003C000716920F0F80040EAC1002860ABE7F068EE
:1003D00001287FF438AF3FE71CB1E86920F0805076
:1003E000E861F06948B3696801F00C0108293FF43D
:1003F000BBAE02287FF469AF00F022F804462868FB
:1004000081013FF554AF306AB0F5803F05D169688E
:10041000B06821F40031014369606A68306A716A2A
:1004200022F4741202430A436A60012000F009F8C2
:100430000446286881017FF541AF0020BDE8F283C2
:100440000020386600F0EAB82DE9F8435C4F054615
:100450003868894600F00700484502D200F079F874
:100460006BD12878504C810705D56268A86822F0C6
:10047000F002024362602978C80756D568680128EF
:1004800002D121688A0303E00228216802D18A018F
:1004900002D452E08A0750D56168890840EA810099
:1004A000606041F2893800F0B9F8064668680128B2
:1004B0000BD1606800F00C00042836D000F0AEF8D4
:1004C000801B4045F5D303202DE0022837D160681A
:1004D00000F00C00082828D000F0A0F8801B404550
:1004E000F5D3F0E72878410705D56268E86822F47B
:1004F000E062024362602978080706D561682869CE
:1005000021F4605141EAC001616000F02DF8626899
:100510002C49264BC2F30312895CC84018600020A6
:1005200000F082F80020BDE8F283386800F0070090
:100530008145D7D200F00DF8D4D00120F3E76068F0
:1005400010F00C0FF1D000F069F8801B4045F6D395
:10055000B9E73968C90849EAC1013960386800F06B
:100560000700484570470000174911480A6802F023
:100570000C03082B00D0704710B500BF14A4C2F3C1
:100580008343D203E35C08D50968584314A3C1F33D
:1005900040415A5CB0FBF2F010BD18460B4948438D
:1005A00010BD024800687047001002400C00002097
:1005B00000127A0000004242800442420070004073
:1005C00000200240241300080410024000093D00EE
:1005D00002030405060708090A0B0C0D0E0F101084
:1005E000010230B4002513E050F8042BD30744BFB8
:1005F000A9F101039A18091F042942F8045BFAD2F1
:1006000013468C0744BF15809B1CC90748BF1D704B
:1006100050F8041B0029E7D130BC704701484068FE
:10062000704700BF0000002038B50D4D0D4B2A78F3
:1006300004464FF47A711868B1FBF2F2B0FBF2F0A5
:1006400000F053F850B9102C08D2002221464FF088
:10065000FF3000F023F8AC60002032BD012032BD35
:10066000000000200C0000200901020006D52F4ADE
:1006700000F00F00104400F8041C70472C4B195474
:1006800070472C4B19684FF6FF020002114000F42E
:10069000E0600843284908431860704738B5254B87
:1006A0001C68C4F30223C3F10704052C28BF0424EB
:1006B0001D1D072D34BF0023DB1E012505FA04F4A0
:1006C000641E2140994005FA03F35B1E1A40114352
:1006D000BDE83440C8E7012200F01F01174BFFE7D7
:1006E0008A40400943F82020704710B5401EB0F101
:1006F000807F01D3012010BD114C60600F214FF0AD
:10070000FF30FFF7B1FF0021A1600720206000202B
:1007100010BD04280A4904D1086840F004000860AC
:1007200070470A6822F004020A60704718ED00E082
:1007300000E400E00CED00E00000FA0500E100E05C
:1007400010E000E000F000B870470000F8B5044683
:1007500000270026002C7AD004F12405686820B90F
:10076000AE602870204600F04FF9204600F002F9F4
:100770006968CA066CD401006AD1696821F488519D
:1007800041F0020169602368DFF8CC11E269D4F816
:1007900004C08B4204BFB2F5402F4FF40022E16841
:1007A00042EA0C02D4F808C0BCF5807F14BFBCF14B
:1007B000010F4FF48077D4F814C0BCF1010F42EA66
:1007C00041020FD131B9A169491E490341F40061C9
:1007D0000F4307E0696841F020016960A96841F0B2
:1007E0000101A960596821F469410F435F602368E2
:1007F000DFF868119F680F4017439F60A168B1F54B
:10080000807F18BF012902D12669761E360521682E
:10081000CB6A23F470031E43CE622468DFF84011D4
:10082000A3680B40934208D10022AA60696821F0B6
:10083000020141F001016960F2BD686820F0020028
:1008400040F010006860A86840F00100A86003E074
:10085000686840F0100068600120F2BDF8B50A46F3
:10086000002100F1240300911C78012C01D1022009
:10087000F2BD01241C701F27546815680668072CF8
:1008800008D2641E04EB8404D6F834C000F05EF88D
:10089000756312E00D2C08D2E41F04EB8404D6F833
:1008A00030C000F053F8356307E00D3C04EB8404DE
:1008B000D6F82CC000F04AF8F5620727166894684D
:1008C00005680A2E08D30A3E06EB4606D5F80CC08A
:1008D00000F036F8EC6006E006EB4606D5F810C0EE
:1008E00000F02EF82C611468102C18BF112C23D1A5
:1008F00000681D4CA0421AD11C4805682C021BD46C
:10090000056845F4000505601068102814D1154AE3
:10091000174D1468B4FBF5F50A204543009500987F
:1009200000281EBF0098401E0090F8D104E001216D
:10093000586840F020005860002018700846F2BD4A
:10094000B7402CEA0707B4403C437047A7402CEA65
:100950000707A5403D437047003C0140FDF7E1FF1C
:10096000FE0E1FFF0C00002000240140082401405F
:1009700040420F0038B5044620688168CA0719D57F
:100980008168490849008160FFF748FE05462068F4
:100990008168C8070ED5FFF741FE401B0328F6D338
:1009A000A06A40F01000A062E06A40F00100E0623E
:1009B000012032BD002032BD3EB50021234CA16094
:1009C000E1604FF46021224825A52060E16100200C
:1009D00060616060012121612046FFF7B7FE18B118
:1009E0004321284600F0ACF80F200121009001912E
:1009F0000022029269462046FFF730FF18B14D21D0
:100A0000284600F09DF837BD00681149884200D0A3
:100A1000704700B50F4885B0026842F4007202606A
:100A20002022006800F400700090032300990192D6
:100A3000029301A9084800F085F803210191029171
:100A400001A9064800F07EF805B000BD5000002066
:100A5000002401401810024000100140000C014029
:100A6000443A5C776F726B5C436F725465785C419B
:100A70004443325C5372635C6164632E6300000024
:100A80000128074A08BF042106D0022808BF082110
:100A900002D0042803D11021104600F022B970477B
:100AA0000018014080B500F049F900F007F800F0A7
:100AB00057F900F0C5F9FFF77FFFFEE700B54FF4E7
:100AC0008031002295B00C910D92139101200B9072
:100AD0000F9002224FF4E011129214910BA8FFF72D
:100AE00027FB00B1FEE7022101910F204FF4806146
:100AF0000090002203910292049202216846FFF7BF
:100B0000A3FC00B1FEE702214FF4004205910792D9
:100B100005A800F0EBF900B1FEE7FFF742FD4FF446
:100B20007A71B0FBF1F0FFF7E0FD0420FFF7F1FD73
:100B3000002200214FF0FF30FFF7B0FD15B000BDDF
:100B4000FEE700002DE9F8430246002000256B4B2C
:100B5000DFF8AC9101270E68AF403E40BE4240F046
:100B6000B6804C686CB3012C20D0022C23D0032C0F
:100B700032D0112C1CD0122C20D0DFF888E1744523
:100B80001CBFDFF884E174451BD0DFF880E17445B9
:100B90001CBFDFF87CE1744513D0DFF878E17445C1
:100BA0001CBFDFF874E174450BD016E0C86814E090
:100BB000C868001D11E0C86808300EE0C8680C3035
:100BC0000BE0886808B9042007E0012819BF082055
:100BD00057610820176100E00020B6F5807F03D23E
:100BE00094464FEA850E05E0A5F1080402F1040CD5
:100BF0004FEA840E0F27DCF8008007FA0EF428EA8B
:100C0000040400FA0EFE4EEA0404CCF800404C68DE
:100C1000E4005CD5D9F80040DFF800E144F00104BD
:100C2000C9F800404FEA950CD9F8004004F00104DF
:100C300000944FEA8508009C5EF82C4008F00C08F0
:100C400007FA08F724EA0707354CA24208BF002438
:100C500018D0344CA24208BF012413D0324CA24217
:100C600008BF02240ED0314CA24208BF032409D091
:100C70002F4CA24208BF042404D02E4CA2420CBF29
:100C80000524062404FA08F427434EF82C70F74391
:100C90004C68E4031C684CBF34433C401C604C6807
:100CA000A4035C684CBF34433C405C604C68E40285
:100CB0009C684CBF34433C409C604C68A40203D504
:100CC000DF683E43DE6002E0DE683740DF606D1CB7
:100CD0000F2D7FF63FAFBDE8F18302B90904016132
:100CE0007047C2685140C1607047134A136803429D
:100CF0001CBF1060FFF7C4BE704700000004014035
:100D00001810024000001110000012100000211005
:100D100000002210000031100000321008000140D5
:100D200000080140000C0140001001400014014087
:100D300000180140001C01401404014080B5074820
:100D4000016841F0100101600320FFF79AFC0020C8
:100D5000FFF76AFC00F03EF9002002BD00200240CF
:100D600030B52D482D4D2E4C85B0016841F0400125
:100D70000160026802F0400204920499026842F0A5
:100D800010020260036803F01003049304990268E0
:100D900042F004020260036803F004030493049920
:100DA000026842F0080202600022006800F00800B9
:100DB00004901821049B2846FFF78FFF00221F2173
:100DC0002046FFF78AFF182100F030F82846FFF789
:100DD000B9FE1F2100F02AF82046FFF7B3FE0620D7
:100DE0001049009001910022029269460E48FFF7D7
:100DF000A9FE002200210720FFF750FC0720FFF783
:100E00006AFC002200210820FFF748FC0820FFF7B9
:100E100062FC05B030BD000018100240001801400F
:100E20000010014000001110000801400091012253
:100E3000019200210291022203926946704700004C
:100E40003EB51F4C1F48206048F6A041616040F24B
:100E5000E7300022E0608021A260A161204600F01E
:100E600007F900BF19A518B13D212846FFF768FE14
:100E70000021009101912046694600F001FA18B165
:100E800044212846FFF75CFE37BD00680D498842C3
:100E900000D0704780B50C48026842F01002026032
:100EA0000022006800F01000009000210098362019
:100EB000FFF7F4FBBDE802403620FFF70CBC000052
:100EC00010000020001000401C100240443A5C77E3
:100ED0006F726B5C436F725465785C414443325C63
:100EE0005372635C74696D2E630000002DE9FC4150
:100EF0000646354D3078C10750D5A8690024C10099
:100F000009D4A86940F08050A8610124A86900F0C4
:100F10008050009000982D4F3868C10519D438686A
:100F200040F480703860FFF779FB80463868C1056F
:100F30000FD4FFF773FBA0EB08006528F6D303205E
:100F40003FE0FFF76BFBC01B41F28931884217D3AA
:100F5000F5E7E86910F440701EBF716801F4407154
:100F6000884210D01A49E86901220A60002320F45F
:100F700040700B60E861C00705D5FFF74FFB0746DF
:100F8000E8698107DDD5EA69706822F4407202439E
:100F9000EA611CB1A86920F08050A861307881070F
:100FA00005D52A68B06822F4404202432A603178AD
:100FB000C80605D52968706921F4800101432960BC
:100FC0000020BDE8F68100000410024000700040DF
:100FD0004004424280B52448016841F001010160AB
:100FE000026802F0010200920099426842F08052C9
:100FF0004260406800F08050009000980320FFF7A6
:1010000040FB002200216FF00B00FFF747FB00229E
:1010100000216FF00A00FFF741FB002200216FF072
:101020000900FFF73BFB002200216FF00400FFF7EF
:1010300035FB002200216FF00300FFF72FFB002299
:1010400000216FF00100FFF729FB002200214FF083
:10105000FF30FFF723FB0548016821F0E06141F014
:101060008061016001BD00BF181002400400014012
:1010700038B5040001D1012032BD00F014F818B9D0
:1010800000F00DF8FFF701FFFFE702206870211D57
:10109000206800F0B0F801206870002032BD002107
:1010A00029702046704704F13C056878704710B5F8
:1010B0000446206801698A0715D5C1688A0712D5D8
:1010C0006FF00201016101222277806910F0030FA5
:1010D000204602D000F0F9F803E000F0F7F800F045
:1010E00087F800202077206801694A0715D5C16874
:1010F0004A0712D56FF0040101610222227780694C
:1011000010F4407F204602D000F0DFF803E000F04A
:10111000DDF800F06DF800202077206801690A07EB
:1011200015D5C1680A0712D56FF0080101610422C4
:101130002277C06910F0030F204602D000F0C5F8F6
:1011400003E000F0C3F800F053F800202077206897
:101150000169CA0615D5C168CA0612D56FF010011B
:10116000016108222277C06910F4407F204602D036
:1011700000F0ABF803E000F0A9F800F039F8002027
:10118000207720680169CA0708D5C168CA0705D554
:101190006FF001010161204600F099F820680169B3
:1011A0000A0608D5C1680A0605D56FF080010161FD
:1011B000204600F08DF8206801694A0608D5C1680C
:1011C0004A0605D56FF040010161204600F081F824
:1011D000206801698A060AD5C1688A0607D56FF0BA
:1011E000200101612046BDE8104000F073B810BD39
:1011F000204600F070B8F0B5DFF870C01C4F0368EF
:101200001C4C1D4D1D4E604518BFB84208D0B0F1B2
:10121000804F18BFB04203D0A84218BFA0420DD1E2
:101220004A6823F070031343604518BFB84207D0E3
:10123000B0F1804F1CBFB042A84201D0A04203D100
:10124000CA6823F4407313434A6923F080031343AD
:10125000036060458B68C3620A68826212BFB8424D
:101260000969016301224261F0BD0000002C0140C8
:1012700000340140000C0040000800400004004021
:1012800030B500F13C031A78012A01D1022030BDAB
:1012900001221A7002245C700268546824F0700401
:1012A0005460046865680A6815436560026894685C
:1012B00024F0800494600268946848680443946051
:1012C000012159700020187030BD70477047704779
:1012D000704770477047704710B50E4A0E49106846
:1012E00040F00100106053680C480B4053601468D4
:1012F00004401460116821F4802111604FF41F0133
:10130000506820F4FE00506091604FF00060044A85
:10131000106010BD001002400000FFF8FFFFF6FE55
:1013200008ED00E0000000000000000001020304DE
:10133000060708097047FEE7FEE7FEE7FEE770478D
:101340007047704780B500F00FF8BDE80140FFF727
:10135000F9B90220FFF7C9BC0420FFF7C6BC014859
:10136000FFF7A5BE1000002002494A6808788218DD
:101370004A6070470000002030B450F8041B79B177
:101380000268436802440830DC0744BFA9F1010445
:10139000E31852F8045B43F8045B091FF9D1ECE74A
:1013A00030BC704710B5074979441831064C7C446D
:1013B000163404E00A68081D114488470146A1421A
:1013C000F8D110BD080000002800000017F2FFFF50
:1013D0007000000010000020000000009DFFFFFFD3
:1013E0001000000064000000000000200000000069
:1013F00000F00DF8002801D0FFF7D4FFAFF3008014
:101400000020AFF30080FFF74DFB00F002F8012051
:10141000704700F001B800000746384600F002F8B7
:10142000FBE7000080B5AFF30080024A11001820EE
:10143000ABBEFBE726000200014880470148004799
:10144000D912000859140008010000000000000033
:101450001000000000A24A04AFF30080AFF3008048
:10146000FFF7C6FFFFF7FEBFFFF7FEBFFFF7FEBFA8
:10147000FFF7FEBFFFF7FEBFFFF7FEBFFFF7FEBFA0
:10148000FFF7FEBFFFF7FEBFFFF7FEBFFFF7FEBF90
:10149000FFF7FEBFFFF7FEBFFFF7FEBFFFF7FEBF80
:1014A000FFF7FEBFFFF7FEBFFFF7FEBFFFF7FEBF70
:1014B000FFF7FEBFFFF7FEBFFFF7FEBFFFF7FEBF60
:1014C000FFF7FEBFFFF7FEBFFFF7FEBFFFF7FEBF50
:1014D000FFF7FEBFFFF7FEBFFFF7FEBFFFF7FEBF40
:1014E000FFF7FEBFFFF7FEBFFFF7FEBFFFF7FEBF30
:1014F000FFF7FEBFFFF7FEBFFFF7FEBFFFF7FEBF20
:10150000FFF7FEBFFFF7FEBFFFF7FEBFFFF7FEBF0F
:10151000FFF7FEBFFFF7FEBFFFF7FEBFFFF7FEBFFF
:10152000FFF7FEBFFFF7FEBFFFF7FEBFFFF7FEBFEF
:10153000FFF7FEBFFFF7FEBFFFF7FEBFFFF7FEBFDF
:08154000FFF7FEBFFFF7FEBF3D
:040000050800145982
:00000001FF
